:100000000C945E000C9486000C9486000C94860080
:100010000C9486000C9486000C9486000C94860048
:100020000C9486000C9486000C9486000C94340783
:100030000C9486000C9486000C9486000C94860028
:100040000C94F5070C9486000C9465080C943F08FA
:100050000C9486000C9486000C9486000C94860008
:100060000C9406060C9486000000000800020100B3
:100070000003040700000000000000000000000072
:10008000250028002B0000000000240027002A0083
:10009000040404040404040402020202020203032E
:1000A0000303030301020408102040800102040836
:1000B00010200102040810209708370B11241FBEDE
:1000C000CFEFD8E0DEBFCDBF11E0A0E0B1E0E0EDC2
:1000D000FCE102C005900D92AE35B107D9F723E0DF
:1000E000AEE5B1E001C01D92A331B207E1F710E027
:1000F000CDE5D0E004C02197FE010E94440BCC3531
:10010000D107C9F70E9434090C945B0E0C940000CF
:1001100090E0FC01EC55FF4F2491FC01E057FF4FAC
:100120008491882399F090E0880F991FFC01EA5789
:10013000FF4FA591B491FC01E458FF4F8591949134
:100140008FB7F894EC91E22BEC938FBF089585ED77
:100150008093BC008091BC0084FDFCCF1092FC0118
:1001600008954091D601262F30E0240F311D213211
:100170003105DCF42091FC012430C9F4FC0180E05D
:1001800090E0861758F43091D6012191DC01AC54EF
:10019000BE4FA30FB11D2C930196F3CF8091D601D2
:1001A000680F6093D60180E0089581E0089582E0B1
:1001B00008950895E091B3018091B201E81730F4F9
:1001C000F0E0EE56FE4F808190E008958FEF9FEFB4
:1001D00008959091B3018091B201981750F4E92FDE
:1001E000F0E0EE56FE4F208130E09F5F9093B30128
:1001F00002C02FEF3FEFC90108958091B20190E056
:100200002091B301821B91090895CF92DF92EF9262
:10021000FF920F931F93CF93DF937C01262F972F8D
:100220008A0180919101882391F0C62FD72F6E010A
:10023000C40ED51ECC15DD0571F06991D701ED9185
:10024000FC910190F081E02DC7010995F3CF642F57
:10025000822F0E94B100C801DF91CF911F910F91B1
:10026000FF90EF90DF90CF900895CF93DF931F9290
:10027000CDB7DEB76983209191012223D1F020917F
:100280009001203240F021E030E0FC0133832283F2
:1002900080E090E015C080918F01E82FF0E0E159F7
:1002A000FE4F998190838F5F80938F01809390019F
:1002B00005C061E0CE0101960E94B10081E090E0AE
:1002C0000F90DF91CF91089590E0FC01E859FF4F26
:1002D0003491FC01EC55FF4F2491FC01E057FF4F96
:1002E000E491EE2309F43BC0332339F1333091F02C
:1002F00038F43130A9F0323001F584B58F7D12C069
:10030000373091F03830A1F03430B9F4809180006A
:100310008F7D03C0809180008F77809380000DC017
:1003200084B58F7784BD09C08091B0008F7703C0FA
:100330008091B0008F7D8093B000F0E0EE0FFF1F42
:10034000E458FF4FA591B4918FB7F894EC916111E7
:1003500003C020952E2301C02E2B2C938FBF089510
:10036000CF92DF92EF92FF92CF93DF93EC01603256
:1003700082E078070CF03DC077FD06C0653B710553
:100380002CF064EB70E002C060E070E0898128E846
:1003900030E06901C81AD10887FDD394CC0CDD1C6C
:1003A000CC0CDD1C0D2C000CEE08FF088A8128E522
:1003B00032E0281B310987FD3395220F331F220FAE
:1003C000331FC901330FAA0BBB0B9C01AD012C19C4
:1003D0003D094E095F09DB010E94220E24EB30E04B
:1003E00040E050E00E94F80DC20ED31EE41EF51E40
:1003F000B60188818C3080F5998148E850E0491B2E
:10040000510997FD5395440F551F440F551F64170D
:10041000750784F09A8128E532E0291B310997FDA0
:100420003395220F331F220F331FAB0126173707D7
:100430000CF4A90142505109440F551F2FB7F894ED
:1004400090E0FC01EE0FFF1F8E0F9F1FFC01E55394
:10045000FD4F528341832FBFDF91CF91FF90EF90EB
:10046000DF90CF900895892B79F41092800082E07C
:10047000809381001092850010928400B19A80913F
:100480006F00826080936F0008953FB7F894809169
:10049000690190916A01A0916B01B0916C0126B540
:1004A000A89B05C02F3F19F00196A11DB11D3FBFAC
:1004B000BA2FA92F982F8827820F911DA11DB11D3A
:1004C000BC01CD0142E0660F771F881F991F4A9536
:1004D000D1F708952FB7F894609165017091660186
:1004E00080916701909168012FBF08950F931F932A
:1004F0000E946A026093360270933702809338023A
:1005000090933902E0912E02F0912F020084F18540
:10051000E02D8EE292E0099597FF1FC00E946A02CB
:100520000091360210913702209138023091390241
:10053000DC01CB01801B910BA20BB30B00913202AB
:1005400010913302209134023091350280179107C7
:10055000A207B307B8F28FEF9FEF1F910F91089595
:10056000CF92DF92EF92FF920F931F93CF93DF937F
:100570006C017A018B01C0E0D0E0CE15DF0589F077
:10058000D8016D918D01D601ED91FC910190F08122
:10059000E02DC6010995892B11F47E0102C0219638
:1005A000ECCFC701DF91CF911F910F91FF90EF909A
:1005B000DF90CF900895FC01918D828D981761F0A6
:1005C000828DDF01A80FB11D5D968C91928D9F5F8A
:1005D0009F73928F90E008958FEF9FEF0895FC0135
:1005E000918D828D981731F0828DE80FF11D858DE8
:1005F00090E008958FEF9FEF0895FC01918D228D7B
:10060000892F90E0805C9F4F821B91098F739927FF
:1006100008958EE292E00E94FD0221E0892B09F408
:1006200020E0822F0895FC01848DDF01A80FB11D09
:10063000A35ABF4F2C91848D90E001968F73992718
:10064000848FA689B7892C93A089B1898C91806405
:100650008C93938D848D981306C00288F389E02DC6
:1006600080818F7D80830895EF92FF920F931F9377
:10067000CF93DF93EC0181E0888F9B8D8C8D981355
:1006800005C0E889F989808185FD24C0F62E0B8D8F
:1006900010E00F5F1F4F0F731127E02E8C8DE812B3
:1006A0000CC00FB607FCFACFE889F989808185FF75
:1006B000F5CFCE010E941303F1CF8B8DFE01E80F21
:1006C000F11DE35AFF4FF0820B8FEA89FB8980818D
:1006D000806207C0EE89FF896083E889F98980819B
:1006E0008064808381E090E0DF91CF911F910F9132
:1006F000FF90EF900895CF93DF93EC01888D8823CE
:10070000C9F0EA89FB89808185FD05C0A889B9897E
:100710008C9186FD0FC00FB607FCF5CF808185FF59
:10072000F2CFA889B9898C9185FFEDCFCE010E94C7
:100730001303E7CFDF91CF91089580E090E0892BFC
:1007400029F00E94090381110C9400000895089576
:100750000895009769F0FC0101900020E9F73197B6
:10076000AF01481B590BBC018EE292E00C94B00221
:1007700080E090E008958F929F92AF92BF920F9386
:100780001F93CF93DF93CDB7DEB7A1970FB6F89441
:10079000DEBF0FBECDBF19A2423008F44AE08E0181
:1007A0000F5D1F4F842E912CA12CB12CA50194011B
:1007B0000E942A0EE62FB901CA0101501109EA3040
:1007C00014F4E05D01C0E95CD801EC93232B242BE9
:1007D000252B61F7C8010E94A903A1960FB6F894D2
:1007E000DEBF0FBECDBFDF91CF911F910F91BF90A4
:1007F000AF909F908F900895CF92DF92EF92FF92EB
:10080000CF93DF936B017C01E0912E02F0912F02D8
:100810000190F081E02D6DE28EE292E00995EC010D
:1008200066277727CB016C197D098E099F094AE05D
:100830000E94BB038C0F9D1FDF91CF91FF90EF9023
:10084000DF90CF900895CF93DF93BC01990F880B71
:10085000990B97FF03C00E94FC0303C04AE00E946B
:10086000BB03EC0188E391E00E94A9038C0F9D1F5C
:10087000DF91CF9108950F931F93CF93DF938C0156
:10088000EB0188E2FB0111928A95E9F74BE050E019
:100890006BE371E0CE010E94EE0C1B8681E090E0DC
:1008A000A0E0B0E08C879D87AE87BF87F80185897F
:1008B0009689A789B08D888B998BAA8BBB8B82E098
:1008C00090E0A0E0B0E08C8B9D8BAE8BBF8B1CA228
:1008D0001DA21EA21FA280E090E0A8E4B4E4888FCD
:1008E000998FAA8FBB8F80E090E0A8E4B4EC8C8F46
:1008F0009D8FAE8FBF8F8DEC9CECACE4BEE388A3E4
:1009000099A3AAA3BBA3DF91CF911F910F91089543
:100910004F925F926F927F928F929F92AF92BF920F
:10092000CF92DF92EF92FF920F931F93CF93DF93BB
:100930008C01EB0184E2FB0111928A95E9F781E0D9
:10094000809391018EE180936E0110928F0110923D
:10095000900163E082E292E00E9435018091900173
:10096000813208F045C09091FC019111FCCF92E0DA
:100970009093FC0191E09093FE019FEF9093FB0117
:100980001092200280931F02AFE6B1E02FEF31E01A
:10099000F9019E2F921B981718F49D919193F9CF0E
:1009A00010922102809121028C6380932102809118
:1009B000FD01813061F41092FD018091210280934C
:1009C000BB008091BC0083FDF8CF85EC01C085EEB3
:1009D0008093BC008091FC018230E1F38091FB01A7
:1009E0008F3F31F08091FB01803211F08091FB014B
:1009F00010928F0110929001109291018091FC0150
:100A00008111FCCF81E08093FC018093FE019FEF78
:100A10009093FB011092200295E090931F02809327
:100A20002102809121028C63809321028091FD013B
:100A3000813061F41092FD01809121028093BB000E
:100A40008091BC0083FDF8CF85EC01C085EE8093DA
:100A5000BC008091FC018130E1F38091200286305E
:100A600018F48091200201C086E0AFEFB1E022E9E6
:100A700031E0F9019E2F921B981718F49D919193E4
:100A8000F9CF1092B3018093B2018630F0F382E285
:100A900092E00E94E900882E82E292E00E94E90042
:100AA000982E82E292E00E94E900682E82E292E0B3
:100AB0000E94E900782E82E292E00E94E900482E2E
:100AC00082E292E00E94E900582EB82CA12CB501D8
:100AD0006929072E000C880B990B0E94FF0C4B0113
:100AE0005C01F8016583768387839087D42CC12CC1
:100AF000B6016529072E000C880B990B0E94FF0C8C
:100B0000F8016187728783879487F62CE12CB701FF
:100B10006729072E000C880B990B0E94FF0CF80127
:100B2000658776878787908B118A128A138A148A41
:100B300084E290E0A0E0B0E088839983AA83BB833D
:100B400085899689A789B08D8C839D83AE83BF8369
:100B500082E090E0A0E0B0E088879987AA87BB8711
:100B6000188A198A1A8A1B8A20E030E849E854E476
:100B7000C501B4010E944A0B20E030E048EC52E489
:100B80000E943A0D6C8B7D8B8E8B9F8B20E030E822
:100B900049E854E4F80161857285838594850E9453
:100BA0004A0B20E030E048EC52E40E943A0D688F96
:100BB000798F8A8F9B8F20E030E045E754E4F8017D
:100BC00065857685878590890E944A0B20E030E014
:100BD00048EC52E40E943A0D6C8F7D8F8E8F9F8F70
:100BE00081E0DF91CF911F910F91FF90EF90DF9007
:100BF000CF90BF90AF909F908F907F906F905F90BD
:100C00004F9008950E94E90C0C94510C1F920F9282
:100C10000FB60F9211242F933F934F935F936F93CF
:100C20007F938F939F93AF93BF93EF93FF938091A5
:100C3000B900887F803609F49CC068F5883209F4D1
:100C40005BC090F4803109F454C038F4882309F46F
:100C5000F6C0883009F44DC0F6C0883109F44CC0A4
:100C6000803209F45DC0EFC0803409F468C048F4F4
:100C7000803309F455C0883309F0E5C08093FB0147
:100C8000D8C0803509F44FC0883509F45DC0883478
:100C900009F0D9C0D6C0883909F4C7C0A8F488378C
:100CA00009F467C038F4883609F463C0803709F462
:100CB00060C0C9C0883809F4B8C0803909F45FC081
:100CC000803809F0C0C05BC0803B09F486C038F4AE
:100CD000803A09F466C0883A09F47FC0B4C0803C09
:100CE00009F4A7C0883C09F4A4C0883B09F48AC071
:100CF000AAC08091210210C09091200280911F0211
:100D0000981770F5E091200281E08E0F8093200209
:100D1000F0E0E150FE4F80818093BB0085EC86C0FF
:100D20008093FB018EC0E091200281E08E0F8093C2
:100D300020028091BB00F0E0E150FE4F8083909153
:100D4000200280911F026EC0E091200281E08E0F90
:100D5000809320028091BB00F0E0E150FE4F808341
:100D60008091FE0181116DC081E08093FD0184EAD4
:100D700061C083E08093FC011092FA01CFCF809193
:100D8000FA01803208F051C0E091FA0181E08E0F43
:100D90008093FA018091BB00F0E0E652FE4F808321
:100DA000BDCF85EC8093BC001092FC018091FA01CC
:100DB000803230F4E091FA01F0E0E652FE4F10820A
:100DC0006091FA0170E0E091D801F091D9018AEDCB
:100DD00091E009951092FA0136C084E08093FC01FD
:100DE0001092D7011092D601E091D401F091D50173
:100DF00009958091D601811105C081E08093D601CB
:100E00001092B401E091D70181E08E0F8093D70159
:100E1000F0E0EC54FE4F80818093BB009091D701AD
:100E20008091D601981708F479CF85E88093BC00AB
:100E30000AC085EC8093BC001092FC0104C01092A3
:100E4000FB010E94A700FF91EF91BF91AF919F918D
:100E50008F917F916F915F914F913F912F910F9063
:100E60000FBE0F901F9018951F920F920FB60F9202
:100E700011242F933F934F935F936F937F938F939F
:100E80009F93AF93BF93EF93FF9380916D0187FF83
:100E900005C010928500109284001BC020916D0146
:100EA000022E000C330B8091EF0290E028173907D7
:100EB00084F480916D01082E000C990BFC01EE0F5B
:100EC000FF1F8E0F9F1FFC01E553FD4F808186FDA4
:100ED00015C080916D018F5F80936D0120916D0130
:100EE000022E000C330B8091EF0290E02817390797
:100EF000C4F480916D018C3064F113C080916D0158
:100F0000082E000C990BFC01EE0FFF1F8E0F9F1F88
:100F1000FC01E553FD4F808160E08F730E94640106
:100F2000D8CF8091840090918500049680349C49AC
:100F300018F480E49CE905C08091840090918500BC
:100F4000049690938900809388008FEF80936D01C1
:100F50003BC0209184003091850080916D01082E66
:100F6000000C990BFC01EE0FFF1F8E0F9F1FFC0161
:100F7000E553FD4F81819281820F931F90938900E9
:100F80008093880080916D01082E000C990BFC0164
:100F9000EE0FFF1F8E0F9F1FFC01E553FD4F808159
:100FA00086FF12C080916D01082E000C990BFC0188
:100FB000EE0FFF1F8E0F9F1FFC01E553FD4F808139
:100FC00061E08F730E946401FF91EF91BF91AF9137
:100FD0009F918F917F916F915F914F913F912F9151
:100FE0000F900FBE0F901F9018951F920F920FB683
:100FF0000F9211242F933F938F939F93AF93BF939F
:101000008091650190916601A0916701B09168019E
:101010003091640123E0230F2D3720F40196A11DA8
:10102000B11D05C026E8230F0296A11DB11D209316
:1010300064018093650190936601A0936701B0936A
:1010400068018091690190916A01A0916B01B09152
:101050006C010196A11DB11D8093690190936A01F5
:10106000A0936B01B0936C01BF91AF919F918F9151
:101070003F912F910F900FBE0F901F9018951F92C8
:101080000F920FB60F9211242F933F934F935F93BC
:101090006F937F938F939F93AF93BF93EF93FF9340
:1010A0008EE292E00E941303FF91EF91BF91AF9106
:1010B0009F918F917F916F915F914F913F912F9170
:1010C0000F900FBE0F901F9018951F920F920FB6A2
:1010D0000F9211242F938F939F93EF93FF93E0919F
:1010E0003E02F0913F028081E0914402F09145027E
:1010F00082FD12C09081809147028F5F8F73209193
:101100004802821751F0E0914702F0E0E25DFD4FA6
:10111000958F8093470201C08081FF91EF919F914D
:101120008F912F910F900FBE0F901F9018951092D6
:1011300025021092240288EE93E0A0E0B0E08093B4
:10114000260290932702A0932802B09329022EE052
:1011500031E0309323022093220210923102109248
:1011600030028093320290933302A0933402B09302
:1011700035028EE191E090932F0280932E0285EC50
:1011800090E090933B0280933A0284EC90E090933D
:101190003D0280933C0280EC90E090933F0280936C
:1011A0003E0281EC90E0909341028093400282ECF9
:1011B00090E0909343028093420286EC90E09093FB
:1011C0004502809344021092470210924802109206
:1011D000490210924A028091EF028C30A0F491E013
:1011E000980F9093EF0280930C0390E0FC01EE0FB8
:1011F000FF1F8E0F9F1FFC01E553FD4F88EB9BE007
:101200009283818303C08FEF80930C038091EF0260
:101210008C30A0F491E0980F9093EF028093090333
:1012200090E0FC01EE0FFF1F8E0F9F1FFC01E553A6
:10123000FD4F88EB9BE09283818303C08FEF809307
:1012400009038EE291E09093F1028093F00289E32A
:1012500090E3A0E0B0E08093050390930603A09391
:101260000703B09308030895CF93DF9300D000D015
:10127000CDB7DEB7789484B5826084BD84B58160D3
:1012800084BD85B5826085BD85B5816085BD809151
:101290006E00816080936E001092810080918100C9
:1012A00082608093810080918100816080938100C1
:1012B000809180008160809380008091B100846083
:1012C0008093B1008091B00081608093B0008091E4
:1012D0007A00846080937A0080917A0082608093A3
:1012E0007A0080917A00816080937A0080917A0000
:1012F000806880937A001092C100E0913E02F091E4
:101300003F0282E08083E0913A02F0913B0210823A
:10131000E0913C02F0913D028FEC808310924602F6
:10132000E0914202F091430286E08083E091400226
:10133000F0914102808180618083E0914002F091D0
:101340004102808188608083E0914002F0914102F7
:10135000808180688083E0914002F0914102808129
:101360008F7D8083809109038C3008F043C084E135
:101370000E94880080910903E82FF0E09F01220F6E
:10138000331FE20FF31FE553FD4F9081907C946172
:10139000908310920A0310920B036CE00E94380BAA
:1013A000682F90E02CE0629FB001112440E050E0F3
:1013B0009A01260F371FF901EE0FFF1F2E0F3F1F57
:1013C000F901E553FD4F208126FD07C04F5F5F4FB8
:1013D0004C30510569F70E943302E0910903F0E0B7
:1013E000CF01880F991FE80FF91FE553FD4F80814A
:1013F0008064808380910C038C3008F043C089E0C6
:101400000E94880080910C03E82FF0E09F01220FDA
:10141000331FE20FF31FE553FD4F9081907C9960DD
:10142000908310920D0310920E036CE00E94380B13
:10143000682F90E02CE0629FB001112440E050E062
:101440009A01260F371FF901EE0FFF1F2E0F3F1FC6
:10145000F901E553FD4F208126FD07C04F5F5F4F27
:101460004C30510569F70E943302E0910C03F0E023
:10147000CF01880F991FE80FF91FE553FD4F8081B9
:101480008064808360E570E08CE093E00E94B001AE
:101490000E946A026093600170936101809362010F
:1014A000909363018AE590E090935F0180935E01E1
:1014B00083E491E00E94A90388E391E00E94A903DC
:1014C0000E946A026B017C01809160019091610130
:1014D0005601A81AB90A88E491E00E94A903C5013F
:1014E0000E9423048EE292E00E94FD02892B09F4FF
:1014F00057C00E947602FC0197FD11C08D32910504
:1015000091F0C0970A9778F0E0912E02F0912F02A7
:101510000680F781E02D8EE292E00995EACF80E027
:1015200090E0DC012DC020E030E0A90110E0E130C6
:10153000F10509F07AC0E0912E02F0912F020680A9
:10154000F781E02D8EE292E029833A834B835C831E
:1015500009950E947602FC01C09729813A814B814E
:101560005C810A9720F3E130F10509F3112309F4B6
:101570007BC088279927DC01821B930BA40BB50B3A
:1015800090935F0180935E01BC01990F880B990BCA
:1015900097FF03C00E94FC0303C04AE00E94BB0304
:1015A00060915E0170915F016A55710989E093E075
:1015B0000E94B00186E591E00E94A90380915E013E
:1015C00090915F010E942304C0926001D09261015A
:1015D000E0926201F09263010E9445024B015C01BE
:1015E00084E6C82ED12CE12CF12C0E944502DC01AE
:1015F000CB0188199909AA09BB09883E9340A10526
:10160000B10558F081E0C81AD108E108F10828EEC8
:10161000820E23E0921EA11CB11CC114D104E1046E
:10162000F10419F70E949D0343CFED32F105D1F08B
:10163000CF01C0970A9708F07ECFAAE0B0E00E94E1
:10164000170E4F01FF0FAA08BB08DC01CB01880D64
:10165000991DAA1DBB1D9C01AD01205331094109F3
:10166000510969CF11E067CFDA01C90189CF089527
:10167000991B79E004C0991F961708F0961B881FE4
:101680007A95C9F780950895EE0FFF1F0590F491A4
:10169000E02D09940E945E0B0C94BE0D0E94B70DC4
:1016A00058F00E94B00D40F029F45F3F29F00C94EF
:1016B000A70D51110C94F20D0C94AD0D0E94CF0D9D
:1016C00068F39923B1F3552391F3951B550BBB2771
:1016D000AA2762177307840738F09F5F5F4F220FB6
:1016E000331F441FAA1FA9F335D00E2E3AF0E0E8AD
:1016F00032D091505040E695001CCAF72BD0FE2FF7
:1017000029D0660F771F881FBB1F2617370748078A
:10171000AB07B0E809F0BB0B802DBF01FF27935842
:101720005F4F3AF09E3F510578F00C94A70D0C9452
:10173000F20D5F3FE4F3983ED4F386957795679575
:10174000B795F7959F5FC9F7880F911D9695879577
:1017500097F90895E1E0660F771F881FBB1F621796
:1017600073078407BA0720F0621B730B840BBA0B54
:10177000EE1F88F7E0950895CF93DF9382309105AF
:1017800010F482E090E0E0911103F091120320E068
:1017900030E0C0E0D0E0309711F14081518148172E
:1017A0005907C0F04817590761F482819381209747
:1017B00019F09B838A832BC09093120380931103AB
:1017C00026C02115310519F04217530718F49A0164
:1017D000BE01DF01EF010280F381E02DDCCF211596
:1017E000310509F1281B390B2430310590F412968C
:1017F0008D919C9113976115710521F0FB019383E5
:10180000828304C09093120380931103FD013296EA
:1018100044C0FD01E20FF31F8193919322503109DF
:101820002D933C933AC020910F0330911003232B4A
:1018300041F4209102013091030130931003209371
:101840000F0320910001309101012115310541F470
:101850002DB73EB74091040150910501241B350B73
:10186000E0910F03F0911003E217F307A0F42E1B91
:101870003F0B2817390778F0AC014E5F5F4F2417F4
:10188000350748F04E0F5F1F5093100340930F032E
:101890008193919302C0E0E0F0E0CF01DF91CF911E
:1018A00008950F931F93CF93DF93009709F48CC093
:1018B000FC013297138212820091110310911203DE
:1018C0000115110581F420813181820F931F209130
:1018D0000F03309110032817390779F5F09310039F
:1018E000E0930F0371C0D80140E050E0AE17BF078E
:1018F00050F412962D913C911397AD0121153105AD
:1019000009F1D901F3CF9D01DA013383228360818C
:101910007181860F971F8217930769F4EC01288164
:101920003981260F371F2E5F3F4F318320838A81F5
:101930009B8193838283452B29F4F0931203E093D8
:10194000110342C01396FC93EE931297ED01499157
:1019500059919E01240F351FE217F30771F480811E
:101960009181840F951F029611969C938E9382818C
:10197000938113969C938E931297E0E0F0E0D80148
:1019800012968D919C911397009719F0F8018C0194
:10199000F6CF8D919C9198012E5F3F4F820F931F40
:1019A00020910F03309110032817390769F43097FD
:1019B00029F4109212031092110302C013821282B2
:1019C0001093100300930F03DF91CF911F910F919C
:1019D000089581E090E0F8940C945B0EFB01DC012B
:1019E0004150504048F001900D920020C9F701C0CD
:1019F0001D9241505040E0F70895E89409C097FBCC
:101A00003EF490958095709561957F4F8F4F9F4FD5
:101A10009923A9F0F92F96E9BB279395F695879519
:101A200077956795B795F111F8CFFAF4BB0F11F4DC
:101A300060FF1BC06F5F7F4F8F4F9F4F16C0882383
:101A400011F096E911C0772321F09EE8872F762FB9
:101A500005C0662371F096E8862F70E060E02AF0FA
:101A60009A95660F771F881FDAF7880F96958795E6
:101A700097F908950E944D0D0C94BE0D0E94B00D73
:101A800038F00E94B70D20F0952311F00C94A70DAB
:101A90000C94AD0D11240C94F20D0E94CF0D70F337
:101AA000959FC1F3950F50E0551F629FF001729F03
:101AB000BB27F00DB11D639FAA27F00DB11DAA1F12
:101AC000649F6627B00DA11D661F829F2227B00D5F
:101AD000A11D621F739FB00DA11D621F839FA00DEA
:101AE000611D221F749F3327A00D611D231F849F3A
:101AF000600D211D822F762F6A2F11249F57504091
:101B00009AF0F1F088234AF0EE0FFF1FBB1F661F0B
:101B1000771F881F91505040A9F79E3F510580F0D4
:101B20000C94A70D0C94F20D5F3FE4F3983ED4F3B0
:101B3000869577956795B795F795E7959F5FC1F778
:101B4000FE2B880F911D9695879597F9089597F923
:101B50009F6780E870E060E008959FEF80EC089553
:101B600000240A941616170618060906089500247C
:101B70000A9412161306140605060895092E0394F6
:101B8000000C11F4882352F0BB0F40F4BF2B11F46A
:101B900060FF04C06F5F7F4F8F4F9F4F089557FDC9
:101BA0009058440F551F59F05F3F71F04795880FCB
:101BB00097FB991F61F09F3F79F087950895121662
:101BC00013061406551FF2CF4695F1DF08C016160E
:101BD00017061806991FF1CF8695710561050894BF
:101BE0000895E894BB2766277727CB0197F90895D6
:101BF000052E97FB1EF400940E940F0E57FD07D090
:101C00000E942A0E07FC03D04EF40C940F0E509540
:101C10004095309521953F4F4F4F5F4F08959095D8
:101C20008095709561957F4F8F4F9F4F08950E94CB
:101C30004C0EA59F900DB49F900DA49F800D911DFB
:101C400011240895B7FF0C94170E0E94170E821BE3
:101C5000930B0895A1E21A2EAA1BBB1BFD010DC018
:101C6000AA1FBB1FEE1FFF1FA217B307E407F5074C
:101C700020F0A21BB30BE40BF50B661F771F881F28
:101C8000991F1A9469F760957095809590959B01BE
:101C9000AC01BD01CF010895A29FB001B39FC00167
:101CA000A39F700D811D1124911DB29F700D811D88
:101CB0001124911D089510E0CDE5D0E004C0FE018F
:101CC0000E94440B2196CE35D107C9F7F894FFCF77
:101CD0000000130380000100000000000000350137
:101CE0000501FD00E900DA00D9000000000034031E
:101CF000B002FD02DB02EF027B0300000000A7033D
:101D00000406A80388043B040D0A00484D433538F7
:101D10003833006C6F6F700074696D65207061738B
:0E1D20007365643A2000416E676C653A2000DE
:00000001FF
