:100000000C9475000C949D000C949D000C949D0024
:100010000C949D000C949D000C949D000C949D00EC
:100020000C949D000C949D000C949D000C9449042C
:100030000C949D000C949D000C949D000C949D00CC
:100040000C940A050C949D000C947A050C945405AC
:100050000C949D000C949D000C949D000C949D00AC
:100060000C94A2070C949D00084AD73B3BCE016E2E
:1000700084BCBFFDC12F3D6C74319ABD56833DDAFF
:100080003D00C77F11BED9E4BB4C3E916BAAAABE0E
:10009000000000803F000000000800020100000393
:1000A0000407000000000000000000000000250020
:1000B00028002B0000000000240027002A00040470
:1000C0000404040404040202020202020303030300
:1000D00003030102040810204080010204081020DC
:1000E000010204081020EE0BED0B11241FBECFEF10
:1000F000D8E0DEBFCDBF23E0A8EBB1E001C01D9288
:10010000A137B207E1F711E0A0E0B1E0E2E6F2E2E8
:1001100002C005900D92A83BB107D9F710E0C4E7E3
:10012000D0E004C02197FE010E94970CC337D1078D
:10013000C9F70E94B1090C9424110C9400003FB738
:10014000F8948091C7019091C801A091C901B09124
:10015000CA0126B5A89B05C02F3F19F00196A11D25
:10016000B11D3FBFBA2FA92F982F8827820F911D4D
:10017000A11DB11DBC01CD0142E0660F771F881F94
:10018000991F4A95D1F708958F929F92AF92BF928F
:10019000CF92DF92EF92FF926B017C010E949F0051
:1001A0004B015C01C114D104E104F104F1F00E949F
:1001B0009F00DC01CB0188199909AA09BB09883E77
:1001C0009340A105B10570F321E0C21AD108E108FE
:1001D000F10888EE880E83E0981EA11CB11CC114A2
:1001E000D104E104F10419F7DDCFFF90EF90DF9027
:1001F000CF90BF90AF909F908F900895CF92DF9255
:10020000EF92FF920F931F93CF93DF936C017A01CC
:100210008B01C0E0D0E0CE15DF0589F0D8016D91EB
:100220008D01D601ED91FC910190F081E02DC60188
:100230000995892B11F47E0102C02196ECCFC701EC
:10024000DF91CF911F910F91FF90EF90DF90CF90B2
:100250000895FC01918D828D981761F0828DDF01E8
:10026000A80FB11D5D968C91928D9F5F9F73928FA9
:1002700090E008958FEF9FEF0895FC01918D828D9E
:10028000981731F0828DE80FF11D858D90E008956B
:100290008FEF9FEF0895FC01918D228D892F90E0C3
:1002A000805C9F4F821B91098F739927089585E287
:1002B00092E00E944B0121E0892B09F420E0822F7B
:1002C0000895FC01848DDF01A80FB11DA35ABF4F13
:1002D0002C91848D90E001968F739927848FA68945
:1002E000B7892C93A089B1898C9180648C93938D6C
:1002F000848D981306C00288F389E02D80818F7D5C
:1003000080830895EF92FF920F931F93CF93DF9313
:10031000EC0181E0888F9B8D8C8D981305C0E88956
:10032000F989808185FD24C0F62E0B8D10E00F5FCA
:100330001F4F0F731127E02E8C8DE8120CC00FB6E3
:1003400007FCFACFE889F989808185FFF5CFCE01D6
:100350000E946101F1CF8B8DFE01E80FF11DE35A80
:10036000FF4FF0820B8FEA89FB898081806207C092
:10037000EE89FF896083E889F989808180648083C0
:1003800081E090E0DF91CF911F910F91FF90EF906E
:100390000895CF93DF93EC01888D8823C9F0EA8913
:1003A000FB89808185FD05C0A889B9898C9186FD6E
:1003B0000FC00FB607FCF5CF808185FFF2CFA8896B
:1003C000B9898C9185FFEDCFCE010E946101E7CF05
:1003D000DF91CF91089508950F931F93CF93DF93EB
:1003E0008C01EB0188E2FB0111928A95E9F74BE061
:1003F00050E06EE471E0CE010E94B2101B8681E0F5
:1004000090E0A0E0B0E08C879D87AE87BF87F801C1
:1004100085899689A789B08D888B998BAA8BBB8B90
:1004200082E090E0A0E0B0E08C8B9D8BAE8BBF8B28
:100430001CA21DA21EA21FA280E090E0A8E4B4E4CA
:10044000888F998FAA8FBB8F80E090E0A8E4B4ECEE
:100450008C8F9D8FAE8FBF8F8DEC9CECACE4BEE398
:1004600088A399A3AAA3BBA3DF91CF911F910F915A
:1004700008954F925F926F927F928F929F92AF9268
:10048000BF92CF92DF92EF92FF920F931F93CF9381
:10049000DF938C01EB0184E2FB0111928A95E9F76D
:1004A00081E0809315028EE180931702109216026C
:1004B0001092180263E089E192E00E943B0681E01D
:1004C0000E948A06809114028111FCCF81E0809302
:1004D0001402809313029FEF909312021092110264
:1004E00095E0909310028093EF018091EF018C636F
:1004F0008093EF018091EE01813061F41092EE0162
:100500008091EF018093BB008091BC0083FDF8CF08
:1005100085EC01C085EE8093BC008091140281308F
:10052000E1F380911102863018F48091110201C02C
:1005300086E0A0EFB1E02CEC31E0F9019E2F921B98
:10054000981718F49D919193F9CF1092ED01809333
:10055000EC018630F0F389E192E00E94EF05882EED
:1005600089E192E00E94EF05982E89E192E00E94D5
:10057000EF05682E89E192E00E94EF05782E89E16F
:1005800092E00E94EF05482E89E192E00E94EF057B
:10059000582EB82CA12CB5016929072E000C880B08
:1005A000990B0E942B0E4B015C01F8016583768349
:1005B00087839087D42CC12CB6016529072E000CA7
:1005C000880B990B0E942B0EF80161877287838735
:1005D0009487F62CE12CB7016729072E000C880BB5
:1005E000990B0E942B0EF801658776878787908B81
:1005F000118A128A138A148A84E290E0A0E0B0E0A3
:1006000088839983AA83BB8385899689A789B08DBE
:100610008C839D83AE83BF8382E090E0A0E0B0E056
:1006200088879987AA87BB87188A198A1A8A1B8A9A
:10063000C0900401D0900501E0900601F090070100
:10064000A7019601C501B4010E94810D20E030E0B0
:1006500048EC52E40E940F0F6C8B7D8B8E8B9F8B2E
:10066000A7019601F80161857285838594850E94B2
:10067000810D20E030E048EC52E40E940F0F688FBB
:10068000798F8A8F9B8F20910001309101014091D9
:10069000020150910301F80165857685878590896F
:1006A0000E94810D20E030E048EC52E40E940F0FE0
:1006B0006C8F7D8F8E8F9F8F81E0DF91CF911F9107
:1006C0000F91FF90EF90DF90CF90BF90AF909F90F1
:1006D0008F907F906F905F904F9008958F929F9230
:1006E000AF92BF92DF92EF92FF920F931F93CF933F
:1006F000DF93CDB7DEB72A970FB6F894DEBF0FBEF3
:10070000CDBF85E292E00E944B014C01CE010196E3
:100710005C01E12CF12C8C01E814F90494F599E0CA
:10072000E916F10471F186E591E00E947C0685E20C
:1007300092E00E942901D82E89E591E00E946A0684
:10074000E0912502F09126020190F081E02D6D2DBF
:1007500085E292E009958DE591E00E946A06EAE063
:10076000DE1205C0F801EE0DFF1D10820AC0FDE08B
:10077000DF16C1F3F501D1925F01FFEFEF1AFF0A17
:10078000CBCFF801EE0DFF1D108280E691E00E94B4
:100790007C0689818536D1F1883671F0833609F07F
:1007A00051C084E691E00E946A068091C001909158
:1007B000C1010E94200746C02B818A812A3041F462
:1007C000082E000C990B9093B9018093B8013AC0A0
:1007D0009C819A3049F4022E000C330B4AE08402CB
:1007E000200D311D11240DC0EAE02E0290011124CC
:1007F000F4E68F02200D311D1124290F311D97FDC4
:100800003A953093B9012093B8011CC060E070E0C4
:1008100083E093E00E941C096AE570E080E093E0C9
:100820000E941C0965E685E292E00E94820164E66E
:1008300070E080E090E00E94C400F89483B781608B
:1008400083BF889586E691E00E946A06C8010E94EF
:100850007C0687E791E00E947C062A960FB6F89402
:10086000DEBF0FBECDBFDF91CF911F910F91FF90E3
:10087000EF90DF90BF90AF909F908F9008950E946F
:10088000570181110C946E0308950E94AD100C94D1
:1008900015101F920F920FB60F9211242F933F93B2
:1008A0004F935F936F937F938F939F93AF93BF9378
:1008B000EF93FF938091CB0187FF05C010928500D5
:1008C000109284001BC02091CB01022E000C330B30
:1008D0008091E60290E02817390784F48091CB01DB
:1008E000082E000C990BFC01EE0FFF1F8E0F9F1FAF
:1008F000FC01EE53FD4F808186FD15C08091CB0138
:100900008F5F8093CB012091CB01022E000C330B23
:100910008091E60290E028173907C4F48091CB015A
:100920008C3064F113C08091CB01082E000C990B20
:10093000FC01EE0FFF1F8E0F9F1FFC01EE53FD4FBA
:10094000808160E08F730E94D008D8CF80918400AE
:1009500090918500049680349C4918F480E49CE9C9
:1009600005C0809184009091850004969093890041
:10097000809388008FEF8093CB013BC0209184004F
:10098000309185008091CB01082E000C990BFC0161
:10099000EE0FFF1F8E0F9F1FFC01EE53FD4F818155
:1009A0009281820F931F9093890080938800809199
:1009B000CB01082E000C990BFC01EE0FFF1F8E0FD0
:1009C0009F1FFC01EE53FD4F808186FF12C0809176
:1009D000CB01082E000C990BFC01EE0FFF1F8E0FB0
:1009E0009F1FFC01EE53FD4F808161E08F730E94D9
:1009F000D008FF91EF91BF91AF919F918F917F911F
:100A00006F915F914F913F912F910F900FBE0F907B
:100A10001F9018951F920F920FB60F9211242F93CB
:100A20003F938F939F93AF93BF938091C301909116
:100A3000C401A091C501B091C6013091C20123E06B
:100A4000230F2D3720F40196A11DB11D05C026E806
:100A5000230F0296A11DB11D2093C2018093C301F3
:100A60009093C401A093C501B093C6018091C701C2
:100A70009091C801A091C901B091CA010196A11D30
:100A8000B11D8093C7019093C801A093C901B09391
:100A9000CA01BF91AF919F918F913F912F910F907C
:100AA0000FBE0F901F9018951F920F920FB60F92C6
:100AB00011242F933F934F935F936F937F938F9363
:100AC0009F93AF93BF93EF93FF9385E292E00E94D1
:100AD0006101FF91EF91BF91AF919F918F917F91B4
:100AE0006F915F914F913F912F910F900FBE0F909B
:100AF0001F9018951F920F920FB60F9211242F93EB
:100B00008F939F93EF93FF93E0913502F09136021C
:100B10008081E0913B02F0913C0282FD12C0908105
:100B200080913E028F5F8F7320913F02821751F0B8
:100B3000E0913E02F0E0EB5DFD4F958F80933E0229
:100B400001C08081FF91EF919F918F912F910F9024
:100B50000FBE0F901F901895089585ED8093BC00EF
:100B60008091BC0084FDFCCF109214020895409146
:100B70002803262F30E0240F311D21323105DCF40B
:100B8000209114022430C9F4FC0180E090E0861723
:100B900058F4309128032191DC01AA5FBC4FA30FC8
:100BA000B11D2C930196F3CF80912803680F6093B9
:100BB000280380E0089581E0089582E00895089573
:100BC000E091ED018091EC01E81730F4F0E0E4539E
:100BD000FE4F808190E008958FEF9FEF08959091F0
:100BE000ED018091EC01981750F4E92FF0E0E45307
:100BF000FE4F208130E09F5F9093ED0102C02FEF08
:100C00003FEFC90108958091EC0190E02091ED0142
:100C1000821B91090895CF92DF92EF92FF920F937A
:100C20001F93CF93DF937C01262F972F8A0180910A
:100C30001502882391F0C62FD72F6E01C40ED51E42
:100C4000CC15DD0571F06991D701ED91FC91019012
:100C5000F081E02DC7010995F3CF642F822F0E9408
:100C6000B705C801DF91CF911F910F91FF90EF90D1
:100C7000DF90CF900895CF93DF931F92CDB7DEB76B
:100C80006983209115022223D1F02091180220328D
:100C900040F021E030E0FC013383228380E090E0EB
:100CA00015C080911602E82FF0E0E35BFC4F9981BC
:100CB00090838F5F809316028093180205C061E0D5
:100CC000CE0101960E94B70581E090E00F90DF9180
:100CD000CF910895009769F0FC0101900020E9F799
:100CE0003197AF01481B590BBC0185E292E00C948F
:100CF000FE0080E090E00895CF93DF930E946A06A3
:100D0000EC018DE591E00E946A068C0F9D1FDF913A
:100D1000CF910895382F2091180290911702213217
:100D200008F049C0809114028111FCCF42E0409349
:100D30001402309313023FEF30931202109211020B
:100D400020931002ADE4B3E040EF51E0FA013E2FF2
:100D5000341B321718F43D913193F9CF1092EF0103
:100D60002091EF01990F922B9093EF019091EE015A
:100D7000913061F41092EE019091EF019093BB00DD
:100D80009091BC0093FDF8CF95EC01C095EE909347
:100D9000BC00909114029230E1F3909112029F3FB7
:100DA00079F080911202803241F0809112028033FA
:100DB00031F084E005C081E003C082E001C083E03F
:100DC0001092160210921802109215020895CF93F5
:100DD000C62F91E0909315029EE190931702109216
:100DE000160210921802682F89E192E00E943B06D9
:100DF0006C2F89E192E00E943B0681E0CF910C9438
:100E00008A0690E0FC01EE52FF4F2491FC01E2546F
:100E1000FF4F8491882399F090E0880F991FFC017F
:100E2000EC54FF4FA591B491FC01E655FF4F85911D
:100E300094918FB7F894EC91E22BEC938FBF0895C7
:100E40008F929F92AF92BF92CF92DF92EF92FF92DA
:100E50000F931F93CF93DF93CDB7DEB7A1970FB654
:100E6000F894DEBF0FBECDBF6C01990FEE08FF08EE
:100E7000F7FE31C0E0912502F09126020190F08149
:100E8000E02D6DE285E292E009958C01222733275F
:100E9000A9012C193D094E095F0919A2CE018196BD
:100EA0007C019AE0892E912CA12CB12CCA01B901A8
:100EB000A50194010E94F310605DF70162937F0128
:100EC000211531054105510589F7CF010E946A06B8
:100ED000080F191F1EC0A701960119A28E010F5DF0
:100EE0001F4F8AE0C82ED12CE12CF12CCA01B90188
:100EF000A70196010E94F310605DF80162938F01D3
:100F0000211531054105510589F7CF010E946A0677
:100F10008C018DE591E00E946A06800F911FA196D9
:100F20000FB6F894DEBF0FBECDBFDF91CF911F91FA
:100F30000F91FF90EF90DF90CF90BF90AF909F9078
:100F40008F9008951F920F920FB60F9211242F9336
:100F50003F934F935F936F937F938F939F93AF9341
:100F6000BF93EF93FF938091B900887F803609F497
:100F70009CC068F5883209F45BC090F4803109F4B4
:100F800054C038F4882309F4F6C0883009F44DC001
:100F9000F6C0883109F44CC0803209F45DC0EFC05E
:100FA000803409F468C048F4803309F455C08833AC
:100FB00009F0E5C080931202D8C0803509F44FC013
:100FC000883509F45DC0883409F0D9C0D6C08839A5
:100FD00009F4C7C0A8F4883709F467C038F4883624
:100FE00009F463C0803709F460C0C9C0883809F4C7
:100FF000B8C0803909F45FC0803809F0C0C05BC058
:10100000803B09F486C038F4803A09F466C0883A17
:1010100009F47FC0B4C0803C09F4A7C0883C09F43F
:10102000A4C0883B09F48AC0AAC08091EF0110C017
:101030009091110280911002981770F5E0911102C1
:1010400081E08E0F80931102F0E0E051FE4F80812D
:101050008093BB0085EC86C0809312028EC0E09125
:10106000110281E08E0F809311028091BB00F0E0AD
:10107000E051FE4F808390911102809110026EC06A
:10108000E091110281E08E0F809311028091BB00EC
:10109000F0E0E051FE4F80838091130281116DC01A
:1010A00081E08093EE0184EA61C083E080931402C2
:1010B00010924C03CFCF80914C03803208F051C086
:1010C000E0914C0381E08E0F80934C038091BB0034
:1010D000F0E0E45DFC4F8083BDCF85EC8093BC00E5
:1010E0001092140280914C03803230F4E0914C0352
:1010F000F0E0E45DFC4F108260914C0370E0E09101
:101100002A03F0912B038CE293E0099510924C0393
:1011100036C084E0809314021092290310922803B1
:10112000E0912603F091270309958091280381110E
:1011300005C081E08093280310920603E091290303
:1011400081E08E0F80932903F0E0EA5FFC4F8081FD
:101150008093BB009091290380912803981708F48D
:1011600079CF85E88093BC000AC085EC8093BC00F1
:101170001092140204C0109212020E94AD05FF9159
:10118000EF91BF91AF919F918F917F916F915F91FF
:101190004F913F912F910F900FBE0F901F90189578
:1011A00090E0FC01EA56FF4F3491FC01EE52FF4FF4
:1011B0002491FC01E254FF4FE491EE2309F43BC07B
:1011C000332339F1333091F038F43130A9F0323033
:1011D00001F584B58F7D12C0373091F03830A1F021
:1011E0003430B9F4809180008F7D03C080918000FD
:1011F0008F77809380000DC084B58F7784BD09C040
:101200008091B0008F7703C08091B0008F7D809374
:10121000B000F0E0EE0FFF1FE655FF4FA591B4912F
:101220008FB7F894EC91611103C020952E2301C073
:101230002E2B2C938FBF0895CF92DF92EF92FF92C7
:10124000CF93DF93EC01603282E078070CF03DC071
:1012500077FD06C0653B71052CF064EB70E002C0C1
:1012600060E070E0898128E830E06901C81AD1089F
:1012700087FDD394CC0CDD1CCC0CDD1C0D2C000C9C
:10128000EE08FF088A8128E532E0281B310987FD36
:101290003395220F331F220F331FC901330FAA0BBF
:1012A000BB0B9C01AD012C193D094E095F09DB0107
:1012B0000E94EB1024EB30E040E050E00E94C110AF
:1012C000C20ED31EE41EF51EB60188818C3080F557
:1012D000998148E850E0491B510997FD5395440F07
:1012E000551F440F551F6417750784F09A8128E530
:1012F00032E0291B310997FD3395220F331F220F4E
:10130000331FAB01261737070CF4A90142505109CE
:10131000440F551F2FB7F89490E0FC01EE0FFF1F0C
:101320008E0F9F1FFC01EE53FD4F528341832FBF51
:10133000DF91CF91FF90EF90DF90CF900895892BB0
:1013400079F41092800082E08093810010928500F1
:1013500010928400B19A80916F00826080936F0038
:101360000895CF93DF93CDB7DEB7A4970FB6F89467
:10137000DEBF0FBECDBF789484B5826084BD84B5D6
:10138000816084BD85B5826085BD85B5816085BD80
:1013900080916E00816080936E0010928100809138
:1013A00081008260809381008091810081608093C0
:1013B0008100809180008160809380008091B100E5
:1013C00084608093B1008091B00081608093B00010
:1013D00080917A00846080937A0080917A008260A4
:1013E00080937A0080917A00816080937A00809166
:1013F0007A00806880937A001092C100E0913502F3
:10140000F091360282E08083E0913102F091320265
:101410001082E0913302F09134028FEC80831092BD
:101420003D02E0913902F0913A0286E08083E0913A
:101430003702F0913802808180618083E091370229
:10144000F0913802808188608083E0913702F091CA
:101450003802808180688083E0913702F091380201
:1014600080818F7D808381E891E00E947C068FE5FA
:1014700091E00E947C061092ED011092EC01109216
:101480001602109218021092140281E08093130247
:101490001092EE0161E082E10E94D00861E083E1F8
:1014A0000E94D0088091B9008E7F8093B90080910E
:1014B000B9008D7F8093B90088E48093B80085E4FB
:1014C0008093BC0060E082E00E94E70660E281E079
:1014D0000E94E70680E290E09093EB028093EA029C
:1014E00080E090E8A9E8B4E48093040190930501BA
:1014F000A0930601B093070180E090E0A5E7B4E473
:101500008093000190930101A0930201B093030125
:10151000809100038C3008F043C088E00E940107EE
:1015200080910003E82FF0E09F01220F331FE20FAC
:10153000F31FEE53FD4F9081907C98609083109242
:101540000103109202036CE00E948B0C682F90E064
:101550002CE0629FB001112440E050E09A01260F78
:10156000371FF901EE0FFF1F2E0F3F1FF901EE533A
:10157000FD4F208126FD07C04F5F5F4F4C30510566
:1015800069F70E949F09E0910003F0E0CF01880F06
:10159000991FE80FF91FEE53FD4F8081806480830F
:1015A000809103038C3008F043C089E00E9401075A
:1015B00080910303E82FF0E09F01220F331FE20F19
:1015C000F31FEE53FD4F9081907C996090831092B1
:1015D0000403109205036CE00E948B0C682F90E0CE
:1015E0002CE0629FB001112440E050E09A01260FE8
:1015F000371FF901EE0FFF1F2E0F3F1FF901EE53AA
:10160000FD4F208126FD07C04F5F5F4F4C305105D5
:1016100069F70E949F09E0910303F0E0CF01880F72
:10162000991FE80FF91FEE53FD4F8081806480837E
:1016300060E570E083E093E00E941C092FB7F89406
:101640008091C3019091C401A091C501B091C601E0
:101650002FBF8093BC019093BD01A093BE01B093B6
:10166000BF018BE991E00E947C06BE016F5F7F4F56
:1016700087EE92E00E9439022D893E894F89588D6C
:10168000698D7A8D8B8D9C8D0E941D0D2EEA37E41D
:1016900041E65EE30E949E0C6B017C0120E030E09D
:1016A000A9010E947C0D87FF0AC02BED3FE049ECA9
:1016B00050E4C701B6010E949E0C6B017C012BED2A
:1016C0003FE049EC50E4C701B6010E94020F181632
:1016D00054F42BED3FE049EC50E4C701B6010E9401
:1016E0009D0C6B017C0120E030E044E353E4C70132
:1016F000B6010E940F0F2BED3FE049E450E40E9439
:10170000810D0E94F30D7093C1016093C00180EAC6
:1017100091E00E946A068091C0019091C1010E94EF
:1017200020078FB7F8948090C3019090C401A090D7
:10173000C501B090C6018FBF8091BC019091BD01E1
:101740007401E81AF90A8AEA91E00E946A06C70160
:101750000E942007E12CF12CF092BB01E092BA012B
:10176000B701665A7F4F80E093E00E941C0964E64F
:1017700070E080E090E00E94C4008FEFE81AF80A61
:101780002AE5E216F10441F76AE570E080E093E0B3
:101790000E941C0968EE73E080E090E00E94C400A3
:1017A0006AE570E080E093E00E941C0960E177E266
:1017B00080E090E00E94C4008092BC019092BD0144
:1017C000A092BE01B092BF0164E670E080E090E0BC
:1017D0000E94C4000E943F0444CF089510921C024E
:1017E00010921B0288EE93E0A0E0B0E080931D020F
:1017F00090931E02A0931F02B093200226E131E0D5
:1018000030931A0220931902109228021092270294
:101810008093290290932A02A0932B02B0932C026A
:1018200086E291E0909326028093250285EC90E079
:10183000909332028093310284EC90E090933402D2
:101840008093330280EC90E09093360280933502CF
:1018500081EC90E0909338028093370282EC90E024
:1018600090933A028093390286EC90E090933C0288
:1018700080933B0210923E0210923F02109240026F
:10188000109241028091E6028C30A0F491E0980F12
:101890009093E6028093030390E0FC01EE0FFF1F9C
:1018A0008E0F9F1FFC01EE53FD4F88EB9BE0928350
:1018B000818303C08FEF809303038091E6028C3015
:1018C000A0F491E0980F9093E6028093000390E0DB
:1018D000FC01EE0FFF1F8E0F9F1FFC01EE53FD4F0B
:1018E00088EB9BE09283818303C08FEF809300039A
:1018F00086E391E09093E8028093E70289E390E326
:10190000A0E0B0E08093FC029093FD02A093FE0261
:10191000B093FF020895991B79E004C0991F9617B0
:1019200008F0961B881F7A95C9F780950895EE0FE9
:10193000FF1F0590F491E02D09945058BB27AA276A
:101940000E94B50C0C94C80E0E94BA0E38F00E948A
:10195000C10E20F039F49F3F19F426F40C94900E38
:101960000EF4E095E7FB0C948A0EE92F0E94D90E45
:1019700058F3BA17620773078407950720F079F4C4
:10198000A6F50C94FB0E0EF4E0950B2EBA2FA02DAD
:101990000B01B90190010C01CA01A0011124FF271C
:1019A000591B99F0593F50F4503E68F11A16F04017
:1019B000A22F232F342F4427585FF3CF4695379516
:1019C0002795A795F0405395C9F77EF41F16BA0BDB
:1019D000620B730B840BBAF09150A1F0FF0FBB1F89
:1019E000661F771F881FC2F70EC0BA0F621F731FD2
:1019F000841F48F4879577956795B795F7959E3F2F
:101A000008F0B0CF9395880F08F09927EE0F9795BF
:101A1000879508950E94BA0E60F080E891E009F47D
:101A20009EEF0E94C10E28F040E851E071F45EEF95
:101A30000CC00C94900E0C94FB0EE92FE0780E94E1
:101A4000D90E40F3092E052AB1F3261737074807A8
:101A5000590738F00E2E07F8E02569F0E025E0641C
:101A60000AC0EF6307F8009407FADB01B9019D0192
:101A7000DC01CA01AD01EF930E94980D0E94C80ECF
:101A80000E944D0D5F91552339F02BED3FE049E465
:101A900050FD49EC0C949E0C0895DF93DD27B92F7F
:101AA000BF7740E85FE31616170648075B0718F490
:101AB000D92F0E94070F9F938F937F936F930E945C
:101AC0007C0FE8E6F0E00E94930E0E94C80E2F9172
:101AD0003F914F915F910E94220FDD2351F090586A
:101AE000A2EA2AED3FE049EC5FE3D0785D270E944F
:101AF000B50CDF910C94C80E0E94660E08F481E0CC
:101B000008950E94950D0C94C80E0E94C10E58F0C5
:101B10000E94BA0E40F029F45F3F29F00C948A0E1F
:101B200051110C94FC0E0C94900E0E94D90E68F387
:101B30009923B1F3552391F3951B550BBB27AA2786
:101B400062177307840738F09F5F5F4F220F331FC0
:101B5000441FAA1FA9F335D00E2E3AF0E0E832D088
:101B600091505040E695001CCAF72BD0FE2F29D08B
:101B7000660F771F881FBB1F261737074807AB075D
:101B8000B0E809F0BB0B802DBF01FF2793585F4FD2
:101B90003AF09E3F510578F00C948A0E0C94FC0E9E
:101BA0005F3FE4F3983ED4F3869577956795B795B4
:101BB000F7959F5FC9F7880F911D9695879597F9BF
:101BC0000895E1E0660F771F881FBB1F6217730738
:101BD0008407BA0720F0621B730B840BBA0BEE1F4D
:101BE00088F7E09508950E94FA0D6894B1110C945D
:101BF000FC0E08950E94E10E88F09F5798F0B92FCF
:101C00009927B751B0F0E1F0660F771F881F991F31
:101C10001AF0BA95C9F714C0B13091F00E94FB0ECA
:101C2000B1E008950C94FB0E672F782F8827B85FDA
:101C300039F0B93FCCF3869577956795B395D9F789
:101C40003EF490958095709561957F4F8F4F9F4F93
:101C50000895E89409C097FB3EF49095809570959F
:101C600061957F4F8F4F9F4F9923A9F0F92F96E9E8
:101C7000BB279395F695879577956795B795F1115D
:101C8000F8CFFAF4BB0F11F460FF1BC06F5F7F4FFA
:101C90008F4F9F4F16C0882311F096E911C077230C
:101CA00021F09EE8872F762F05C0662371F096E815
:101CB000862F70E060E02AF09A95660F771F881FE4
:101CC000DAF7880F9695879597F90895990F000888
:101CD000550FAA0BE0E8FEEF16161706E807F907FE
:101CE000C0F012161306E407F50798F0621B730B99
:101CF000840B950B39F40A2661F0232B242B252B1A
:101D000021F408950A2609F4A140A6958FEF811DBC
:101D1000811D089597F99F6780E870E060E008955D
:101D20009FEF80EC0895DF93CF931F930F93FF9263
:101D3000EF92DF927B018C01689406C0DA2EEF01EE
:101D40000E94220FFE01E894A591259135914591BD
:101D50005591A6F3EF010E94B50CFE019701A80171
:101D6000DA9469F7DF90EF90FF900F911F91CF9178
:101D7000DF91089500240A9416161706180609061E
:101D8000089500240A9412161306140605060895F1
:101D9000092E0394000C11F4882352F0BB0F40F479
:101DA000BF2B11F460FF04C06F5F7F4F8F4F9F4FB9
:101DB000089557FD9058440F551F59F05F3F71F03B
:101DC0004795880F97FB991F61F09F3F79F08795A2
:101DD0000895121613061406551FF2CF4695F1DF2B
:101DE00008C0161617061806991FF1CF86957105BB
:101DF000610508940895E894BB2766277727CB01EF
:101E000097F908950E94660E08F48FEF08959B01DC
:101E1000AC0160E070E080E89FE30C94810D0E94CB
:101E2000220F0C94C80E0E94BA0E38F00E94C10E08
:101E300020F0952311F00C948A0E0C94900E11242E
:101E40000C94FC0E0E94D90E70F3959FC1F3950F70
:101E500050E0551F629FF001729FBB27F00DB11D2E
:101E6000639FAA27F00DB11DAA1F649F6627B00DBE
:101E7000A11D661F829F2227B00DA11D621F739FA7
:101E8000B00DA11D621F839FA00D611D221F749FB5
:101E90003327A00D611D231F849F600D211D822FFC
:101EA000762F6A2F11249F5750409AF0F1F0882323
:101EB0004AF0EE0FFF1FBB1F661F771F881F915050
:101EC0005040A9F79E3F510580F00C948A0E0C9467
:101ED000FC0E5F3FE4F3983ED4F3869577956795C3
:101EE000B795F795E7959F5FC1F7FE2B880F911D7A
:101EF0009695879597F908959B01AC010C940F0F67
:101F0000CF93DF938230910510F482E090E0E0916E
:101F10006F03F091700320E030E0C0E0D0E0309734
:101F200011F14081518148175907C0F048175907EE
:101F300061F482819381209719F09B838A832BC05F
:101F40009093700380936F0326C02115310519F01B
:101F50004217530718F49A01BE01DF01EF01028016
:101F6000F381E02DDCCF2115310509F1281B390B58
:101F70002430310590F412968D919C911397611540
:101F8000710521F0FB019383828304C09093700359
:101F900080936F03FD01329644C0FD01E20FF31FF1
:101FA00081939193225031092D933C933AC0209113
:101FB0006D0330916E03232B41F420910A0130917F
:101FC0000B0130936E0320936D0320910801309133
:101FD00009012115310541F42DB73EB740910C019F
:101FE00050910D01241B350BE0916D03F0916E03B0
:101FF000E217F307A0F42E1B3F0B2817390778F0E0
:10200000AC014E5F5F4F2417350748F04E0F5F1F3E
:1020100050936E0340936D038193919302C0E0E06F
:10202000F0E0CF01DF91CF9108950F931F93CF93ED
:10203000DF93009709F48CC0FC013297138212825F
:1020400000916F03109170030115110581F4208137
:102050003181820F931F20916D0330916E032817F9
:10206000390779F5F0936E03E0936D0371C0D801E1
:1020700040E050E0AE17BF0750F412962D913C910E
:102080001397AD012115310509F1D901F3CF9D0158
:10209000DA013383228360817181860F971F821753
:1020A000930769F4EC0128813981260F371F2E5FD1
:1020B0003F4F318320838A819B8193838283452B89
:1020C00029F4F0937003E0936F0342C01396FC93DE
:1020D000EE931297ED01499159919E01240F351FFE
:1020E000E217F30771F480819181840F951F0296A6
:1020F00011969C938E938281938113969C938E93D9
:102100001297E0E0F0E0D80112968D919C91139720
:10211000009719F0F8018C01F6CF8D919C919801F0
:102120002E5F3F4F820F931F20916D0330916E03FE
:102130002817390769F4309729F410927003109228
:102140006F0302C01382128210936E0300936D031B
:10215000DF91CF911F910F91089581E090E0F89465
:102160000C942411FB01DC014150504048F00190D7
:102170000D920020C9F701C01D9241505040E0F778
:102180000895052E97FB1EF400940E94D81057FD69
:1021900007D00E94F31007FC03D04EF40C94D81023
:1021A00050954095309521953F4F4F4F5F4F089583
:1021B00090958095709561957F4F8F4F9F4F0895B3
:1021C0000E941511A59F900DB49F900DA49F800DA6
:1021D000911D11240895B7FF0C94E0100E94E010A7
:1021E000821B930B0895A1E21A2EAA1BBB1BFD01B3
:1021F0000DC0AA1FBB1FEE1FFF1FA217B307E407E6
:10220000F50720F0A21BB30BE40BF50B661F771F3D
:10221000881F991F1A9469F760957095809590951D
:102220009B01AC01BD01CF010895A29FB001B39FF6
:10223000C001A39F700D811D1124911DB29F700DCF
:10224000811D1124911D089510E0C4E7D0E004C061
:10225000FE010E94970C2196C537D107C9F7F89463
:02226000FFCFAE
:102262000000754400808944000071038000010071
:102272000000000000003B060B060306EF05E00528
:10228200DF05000000008201FE004B0129013D0133
:10229200C90100000000AC054704EB013902EC0162
:1022A2000000000000000000EB0145044504484D19
:1022B200433538383300696E00633A20000D0A0056
:1022C200454E4400630043757272656E7420436F1D
:1022D2006D6D616E643A00454E445F414741494E1F
:1022E20000484D4335383833204D61676E65746F51
:1022F2006D657465722054657374006C6F6F700045
:1023020048656164696E673A200074696D65207082
:0823120061737365643A200059
:00000001FF
