:100000000C9475000C949D000C949D000C949D0024
:100010000C949D000C949D000C949D000C949D00EC
:100020000C949D000C949D000C949D000C943B0539
:100030000C949D000C949D000C949D000C949D00CC
:100040000C9421060C949D000C9491060C946B0664
:100050000C949D000C949D000C949D000C949D00AC
:100060000C9461080C949D00084AD73B3BCE016E6E
:1000700084BCBFFDC12F3D6C74319ABD56833DDAFF
:100080003D00C77F11BED9E4BB4C3E916BAAAABE0E
:10009000000000803F000000000800020100000393
:1000A0000407000000000000000000000000250020
:1000B00028002B0000000000240027002A00040470
:1000C0000404040404040202020202020303030300
:1000D00003030102040810204080010204081020DC
:1000E000010204081020D70BD60B11241FBECFEF3E
:1000F000D8E0DEBFCDBF23E0A8EBB1E001C01D9288
:10010000A337B207E1F711E0A0E0B1E0E4E3F2E2E7
:1001100002C005900D92A83BB107D9F710E0C4E7E3
:10012000D0E004C02197FE010E94800CC337D107A4
:10013000C9F70E94B7090C940D110C94000080912E
:10014000EE0190E02091EF01821B9109089590E06B
:10015000FC01EA56FF4F3491FC01EE52FF4F24910F
:10016000FC01E254FF4FE491EE2309F43BC033233A
:1001700039F1333091F038F43130A9F0323001F5F3
:1001800084B58F7D12C0373091F03830A1F0343013
:10019000B9F4809180008F7D03C0809180008F77BB
:1001A000809380000DC084B58F7784BD09C0809195
:1001B000B0008F7703C08091B0008F7D8093B00036
:1001C000F0E0EE0FFF1FE655FF4FA591B4918FB7FA
:1001D000F894EC91611103C020952E2301C02E2BC1
:1001E0002C938FBF0895CF92DF92EF92FF92CF931F
:1001F000DF93EC01603282E078070CF03DC077FDC0
:1002000006C0653B71052CF064EB70E002C060E055
:1002100070E0898128E830E06901C81AD10887FDBB
:10022000D394CC0CDD1CCC0CDD1C0D2C000CEE088A
:10023000FF088A8128E532E0281B310987FD3395C4
:10024000220F331F220F331FC901330FAA0BBB0B21
:100250009C01AD012C193D094E095F09DB010E948B
:10026000D41024EB30E040E050E00E94AA10C20E0F
:10027000D31EE41EF51EB60188818C3080F599816D
:1002800048E850E0491B510997FD5395440F551F0D
:10029000440F551F6417750784F09A8128E532E0F2
:1002A000291B310997FD3395220F331F220F331F6E
:1002B000AB01261737070CF4A90142505109440F2E
:1002C000551F2FB7F89490E0FC01EE0FFF1F8E0F23
:1002D0009F1FFC01EC51FD4F528341832FBFDF91E3
:1002E000CF91FF90EF90DF90CF900895892B79F414
:1002F0001092800082E0809381001092850010921D
:100300008400B19A80916F00826080936F0008959D
:10031000CF92DF92EF92FF920F931F93CF93DF93D1
:100320006C017A018B01C0E0D0E0CE15DF0589F0C9
:10033000D8016D918D01D601ED91FC910190F08174
:10034000E02DC6010995892B11F47E0102C021968A
:10035000ECCFC701DF91CF911F910F91FF90EF90EC
:10036000DF90CF900895FC01918D828D981761F0F8
:10037000828DDF01A80FB11D5D968C91928D9F5FDC
:100380009F73928F90E008958FEF9FEF0895FC0187
:10039000918D828D981731F0828DE80FF11D858D3A
:1003A00090E008958FEF9FEF0895FC01918D228DCD
:1003B000892F90E0805C9F4F821B91098F73992752
:1003C000089587E492E00E94D50121E0892B09F489
:1003D00020E0822F0895FC01848DDF01A80FB11D5C
:1003E000A35ABF4F2C91848D90E001968F7399276B
:1003F000848FA689B7892C93A089B1898C91806458
:100400008C93938D848D981306C00288F389E02D18
:1004100080818F7D80830895EF92FF920F931F93C9
:10042000CF93DF93EC0181E0888F9B8D8C8D9813A7
:1004300005C0E889F989808185FD24C0F62E0B8DE1
:1004400010E00F5F1F4F0F731127E02E8C8DE81205
:100450000CC00FB607FCFACFE889F989808185FFC7
:10046000F5CFCE010E94EB01F1CF8B8DFE01E80F9D
:10047000F11DE35AFF4FF0820B8FEA89FB898081DF
:10048000806207C0EE89FF896083E889F9898081ED
:100490008064808381E090E0DF91CF911F910F9184
:1004A000FF90EF900895CF93DF93EC01888D882320
:1004B000C9F0EA89FB89808185FD05C0A889B989D1
:1004C0008C9186FD0FC00FB607FCF5CF808185FFAC
:1004D000F2CFA889B9898C9185FFEDCFCE010E941A
:1004E000EB01E7CFDF91CF9108950895CF92DF928E
:1004F000EF92FF920F931F93CF93DF937C01262FF0
:10050000972F8A0180911702882391F0C62FD72F49
:100510006E01C40ED51ECC15DD0571F06991D701B1
:10052000ED91FC910190F081E02DC7010995F3CF89
:10053000642F822F0E948F09C801DF91CF911F91F4
:100540000F91FF90EF90DF90CF900895CF93DF93BE
:100550001F92CDB7DEB76983209117022223D1F015
:1005600020913A02203240F021E030E0FC01338358
:10057000228380E090E015C080911802E82FF0E01F
:10058000E75EFD4F998190838F5F8093180280937F
:100590003A0205C061E0CE0101960E948F0981E018
:1005A00090E00F90DF91CF9108950F931F93CF9319
:1005B000DF938C01EB0188E2FB0111928A95E9F748
:1005C0004BE050E06EE471E0CE010E949B101B8670
:1005D00081E090E0A0E0B0E08C879D87AE87BF8788
:1005E000F80185899689A789B08D888B998BAA8B0C
:1005F000BB8B82E090E0A0E0B0E08C8B9D8BAE8B5B
:10060000BF8B1CA21DA21EA21FA280E090E0A8E446
:10061000B4E4888F998FAA8FBB8F80E090E0A8E424
:10062000B4EC8C8F9D8FAE8FBF8F8DEC9CECACE4C7
:10063000BEE388A399A3AAA3BBA3DF91CF911F9187
:100640000F9108954F925F926F927F928F929F9237
:10065000AF92BF92CF92DF92EF92FF920F931F93D0
:10066000CF93DF938C01EB0184E2FB0111928A9519
:10067000E9F781E0809317028EE1809339021092AE
:10068000180210923A0263E08BE392E00E94A60205
:1006900081E00E941207809116028111FCCF81E057
:1006A00080931602809315029FEF9093140210928C
:1006B000130295E0909312028093F1018091F10171
:1006C0008C638093F1018091F001813061F410928C
:1006D000F0018091F1018093BB008091BC0083FD0B
:1006E000F8CF85EC01C085EE8093BC0080911602A6
:1006F0008130E1F380911302863018F48091130267
:1007000001C086E0A2EFB1E02EEC31E0F9019E2FAE
:10071000921B981718F49D919193F9CF1092EF01C5
:100720008093EE018630F0F38BE392E00E94DE06C8
:10073000882E8BE392E00E94DE06982E8BE392E0F7
:100740000E94DE06682E8BE392E00E94DE06782E81
:100750008BE392E00E94DE06482E8BE392E00E943B
:10076000DE06582EB82CA12CB5016929072E000CE5
:10077000880B990B0E94140E4B015C01F8016583F4
:10078000768387839087D42CC12CB6016529072EE8
:10079000000C880B990B0E94140EF8016187728778
:1007A00083879487F62CE12CB7016729072E000C6C
:1007B000880B990B0E94140EF8016587768787874E
:1007C000908B118A128A138A148A84E290E0A0E046
:1007D000B0E088839983AA83BB8385899689A7899A
:1007E000B08D8C839D83AE83BF8382E090E0A0E0D8
:1007F000B0E088879987AA87BB87188A198A1A8ADE
:100800001B8AC0900401D0900501E0900601F09091
:100810000701A7019601C501B4010E946A0D20E0FD
:1008200030E048EC52E40E94F80E6C8B7D8B8E8B8E
:100830009F8BA7019601F801618572858385948558
:100840000E946A0D20E030E048EC52E40E94F80E6D
:10085000688F798F8A8F9B8F2091000130910101E1
:100860004091020150910301F801658576858785E5
:1008700090890E946A0D20E030E048EC52E40E942A
:10088000F80E6C8F7D8F8E8F9F8F81E0DF91CF91DF
:100890001F910F91FF90EF90DF90CF90BF90AF909E
:1008A0009F908F907F906F905F904F9008958F9260
:1008B0009F92AF92BF92DF92EF92FF920F931F939E
:1008C000CF93DF93CDB7DEB72A970FB6F894DEBF8C
:1008D0000FBECDBF87E492E00E94D5014C01CE014E
:1008E00001965C01E12CF12C8C01E814F90494F5DB
:1008F00099E0E916F10471F186E591E00E940407A0
:1009000087E492E00E94B301D82E89E591E00E942D
:10091000F206E0914702F09148020190F081E02D4B
:100920006D2D87E492E009958DE591E00E94F20635
:10093000EAE0DE1205C0F801EE0DFF1D10820AC0CC
:10094000FDE0DF16C1F3F501D1925F01FFEFEF1A71
:10095000FF0ACBCFF801EE0DFF1D108280E691E07B
:100960000E94040789818536D1F1883671F083367B
:1009700009F05AC084E691E00E94F2068091C2011B
:100980009091C3010E94DF074FC02B818A812A30DA
:1009900041F4082E000C990B9093B9018093B80193
:1009A00043C09C819A3049F4022E000C330B4AE07C
:1009B0008402200D311D11240DC0EAE02E029001A9
:1009C0001124F4E68F02200D311D1124290F311D51
:1009D00097FD3A953093B9012093B80125C060E0A6
:1009E00070E085E293E00E94F30060E070E082E254
:1009F00093E00E94F300E0912203F0E0CF01880F22
:100A0000991FE80FF91FEC51FD4F80818F7B808388
:100A100065E687E492E00E940C020E94A807F89421
:100A200083B7816083BF889586E691E00E94F206D5
:100A3000C8010E94040787E791E00E9404072A96F4
:100A40000FB6F894DEBF0FBECDBFDF91CF911F91DF
:100A50000F91FF90EF90DF90BF90AF909F908F909D
:100A600008950E94E10181110C94570408950E9499
:100A700096100C94FE0F1F920F920FB60F92112436
:100A80002F933F934F935F936F937F938F939F9396
:100A9000AF93BF93EF93FF938091CD0187FF05C084
:100AA00010928500109284001BC02091CD01022E6F
:100AB000000C330B8091080390E02817390784F469
:100AC0008091CD01082E000C990BFC01EE0FFF1F49
:100AD0008E0F9F1FFC01EC51FD4F808186FD15C0DC
:100AE0008091CD018F5F8093CD012091CD01022EA9
:100AF000000C330B8091080390E028173907C4F4E9
:100B00008091CD018C3064F113C08091CD01082E0D
:100B1000000C990BFC01EE0FFF1F8E0F9F1FFC01B5
:100B2000EC51FD4F808160E08F730E94A700D8CF09
:100B30008091840090918500049680349C4918F43B
:100B400080E49CE905C08091840090918500049622
:100B500090938900809388008FEF8093CD013BC0F4
:100B600020918400309185008091CD01082E000CE9
:100B7000990BFC01EE0FFF1F8E0F9F1FFC01EC5124
:100B8000FD4F81819281820F931F90938900809302
:100B900088008091CD01082E000C990BFC01EE0F0E
:100BA000FF1F8E0F9F1FFC01EC51FD4F808186FFC0
:100BB00012C08091CD01082E000C990BFC01EE0FA4
:100BC000FF1F8E0F9F1FFC01EC51FD4F808161E0E4
:100BD0008F730E94A700FF91EF91BF91AF919F91FA
:100BE0008F917F916F915F914F913F912F910F90D6
:100BF0000FBE0F901F9018953FB7F8948091C901D0
:100C00009091CA01A091CB01B091CC0126B5A89BCF
:100C100005C02F3F19F00196A11DB11D3FBFBA2F8E
:100C2000A92F982F8827820F911DA11DB11DBC01EE
:100C3000CD0142E0660F771F881F991F4A95D1F7B3
:100C400008951F920F920FB60F9211242F933F9386
:100C50008F939F93AF93BF938091C5019091C601ED
:100C6000A091C701B091C8013091C40123E0230FC6
:100C70002D3720F40196A11DB11D05C026E8230FD4
:100C80000296A11DB11D2093C4018093C5019093CC
:100C9000C601A093C701B093C8018091C90190918A
:100CA000CA01A091CB01B091CC010196A11DB11D4B
:100CB0008093C9019093CA01A093CB01B093CC015A
:100CC000BF91AF919F918F913F912F910F900FBE48
:100CD0000F901F9018951F920F920FB60F9211242C
:100CE0002F933F934F935F936F937F938F939F9334
:100CF000AF93BF93EF93FF9387E492E00E94EB01E1
:100D0000FF91EF91BF91AF919F918F917F916F91E3
:100D10005F914F913F912F910F900FBE0F901F90B9
:100D200018951F920F920FB60F9211242F938F9345
:100D30009F93EF93FF93E0915702F09158028081C7
:100D4000E0915D02F0915E0282FD12C0908180917F
:100D500060028F5F8F7320916102821751F0E091E2
:100D60006002F0E0E95BFD4F958F8093600201C067
:100D70008081FF91EF919F918F912F910F900FBEE6
:100D80000F901F901895089585ED8093BC00809179
:100D9000BC0084FDFCCF1092160208950895E091E6
:100DA000EF018091EE01E81730F4F0E0E253FE4FDE
:100DB000808190E008958FEF9FEF08959091EF016B
:100DC0008091EE01981750F4E92FF0E0E253FE4FC6
:100DD000208130E09F5F9093EF0102C02FEF3FEF43
:100DE000C9010895009769F0FC0101900020E9F71E
:100DF0003197AF01481B590BBC0187E492E00C947A
:100E0000880180E090E00895CF93DF930E94F2067E
:100E1000EC018DE591E00E94F2068C0F9D1FDF91A1
:100E2000CF910895382F20913A02909139022132C2
:100E300008F049C0809116028111FCCF42E0409336
:100E40001602309315023FEF3093140210921302F2
:100E500020931202A9E1B2E042EF51E0FA013E2FE5
:100E6000341B321718F43D913193F9CF1092F101F0
:100E70002091F101990F922B9093F1019091F00143
:100E8000913061F41092F0019091F1019093BB00C8
:100E90009091BC0093FDF8CF95EC01C095EE909336
:100EA000BC00909116029230E1F3909114029F3FA2
:100EB00079F080911402803241F0809114028033E5
:100EC00031F084E005C081E003C082E001C083E02E
:100ED0001092180210923A02109217020895CF93BE
:100EE000C62F91E0909317029EE1909339021092E1
:100EF000180210923A02682F8BE392E00E94A60239
:100F00006C2F8BE392E00E94A60281E0CF910C94BB
:100F1000120790E0FC01EE52FF4F2491FC01E254D5
:100F2000FF4F8491882399F090E0880F991FFC016E
:100F3000EC54FF4FA591B491FC01E655FF4F85910C
:100F400094918FB7F894EC91E22BEC938FBF0895B6
:100F50008F929F92AF92BF92CF92DF92EF92FF92C9
:100F60000E94FC054B015C0184E6C82ED12CE12CCB
:100F7000F12C0E94FC05DC01CB0188199909AA0912
:100F8000BB09883E9340A105B10558F021E0C21A83
:100F9000D108E108F10888EE880E83E0981EA11CB4
:100FA000B11CC114D104E104F10419F7FF90EF90D2
:100FB000DF90CF90BF90AF909F908F9008958F92C9
:100FC0009F92AF92BF92CF92DF92EF92FF920F93D8
:100FD0001F93CF93DF93CDB7DEB7A1970FB6F894E9
:100FE000DEBF0FBECDBF6C01990FEE08FF08F7FE04
:100FF00031C0E0914702F09148020190F081E02D6C
:101000006DE287E492E009958C0122273327A9013C
:101010002C193D094E095F0919A2CE0181967C0168
:101020009AE0892E912CA12CB12CCA01B901A501FD
:1010300094010E94DC10605DF70162937F0121152D
:1010400031054105510589F7CF010E94F206080FCD
:10105000191F1EC0A701960119A28E010F5D1F4F17
:101060008AE0C82ED12CE12CF12CCA01B901A701CC
:1010700096010E94DC10605DF80162938F012115DA
:1010800031054105510589F7CF010E94F2068C0117
:101090008DE591E00E94F206800F911FA1960FB698
:1010A000F894DEBF0FBECDBFDF91CF911F910F919E
:1010B000FF90EF90DF90CF90BF90AF909F908F9078
:1010C00008951F920F920FB60F9211242F933F9302
:1010D0004F935F936F937F938F939F93AF93BF9340
:1010E000EF93FF938091B900887F803609F49CC00C
:1010F00068F5883209F45BC090F4803109F454C07B
:1011000038F4882309F4F6C0883009F44DC0F6C0DD
:10111000883109F44CC0803209F45DC0EFC08034DE
:1011200009F468C048F4803309F455C0883309F0E5
:10113000E5C080931402D8C0803509F44FC08835CB
:1011400009F45DC0883409F0D9C0D6C0883909F4E3
:10115000C7C0A8F4883709F467C038F4883609F4A2
:1011600063C0803709F460C0C9C0883809F4B8C0CA
:10117000803909F45FC0803809F0C0C05BC0803B93
:1011800009F486C038F4803A09F466C0883A09F454
:101190007FC0B4C0803C09F4A7C0883C09F4A4C057
:1011A000883B09F48AC0AAC08091F10110C09091D7
:1011B000130280911202981770F5E091130281E0FA
:1011C0008E0F80931302F0E0EE50FE4F80818093EB
:1011D000BB0085EC86C0809314028EC0E0911302A0
:1011E00081E08E0F809313028091BB00F0E0EE50FF
:1011F000FE4F808390911302809112026EC0E091A5
:10120000130281E08E0F809313028091BB00F0E007
:10121000EE50FE4F80838091150281116DC081E0F8
:101220008093F00184EA61C083E0809316021092FB
:101230006E03CFCF80916E03803208F051C0E091F1
:101240006E0381E08E0F80936E038091BB00F0E00F
:10125000E25BFC4F8083BDCF85EC8093BC00109295
:10126000160280916E03803230F4E0916E03F0E05C
:10127000E25BFC4F108260916E0370E0E0914C03E2
:10128000F0914D038EE493E0099510926E0336C001
:1012900084E08093160210924B0310924A03E0916F
:1012A0004803F0914903099580914A03811105C0D3
:1012B00081E080934A0310922803E0914B0381E080
:1012C0008E0F80934B03F0E0E85DFC4F80818093AC
:1012D000BB0090914B0380914A03981708F479CF93
:1012E00085E88093BC000AC085EC8093BC00109216
:1012F000160204C0109214020E94C406FF91EF91DE
:10130000BF91AF919F918F917F916F915F914F911D
:101310003F912F910F900FBE0F901F901895409105
:101320004A03262F30E0240F311D21323105DCF431
:10133000209116022430C9F4FC0180E090E0861769
:1013400058F430914A032191DC01A85DBC4FA30FF2
:10135000B11D2C930196F3CF80914A03680F6093DF
:101360004A0380E0089581E0089582E00895CF93D4
:10137000DF93CDB7DEB7A4970FB6F894DEBF0FBEEC
:10138000CDBF789484B5826084BD84B5816084BD0E
:1013900085B5826085BD85B5816085BD80916E0013
:1013A000816080936E001092810080918100826044
:1013B0008093810080918100816080938100809181
:1013C00080008160809380008091B1008460809370
:1013D000B1008091B00081608093B00080917A006C
:1013E000846080937A0080917A00826080937A0092
:1013F00080917A00816080937A0080917A00806881
:1014000080937A001092C100E0915702F091580247
:1014100082E08083E0915302F09154021082E091C7
:101420005502F09156028FEC808310925F02E0919A
:101430005B02F0915C0286E08083E0915902F091BA
:101440005A02808180618083E0915902F0915A02B2
:10145000808188608083E0915902F0915A028081F6
:1014600080688083E0915902F0915A0280818F7DDB
:10147000808381E891E00E9404078FE591E00E945B
:1014800004071092EF011092EE01109218021092D0
:101490003A021092160281E0809315021092F00138
:1014A00061E082E10E94A70061E083E10E94A70061
:1014B0008091B9008E7F8093B9008091B9008D7FB3
:1014C0008093B90088E48093B80085E48093BC00E1
:1014D00060E082E00E946F0760E281E00E946F0797
:1014E00080E290E090930D0380930C0380E090E8FD
:1014F000A9E8B4E48093040190930501A093060148
:10150000B093070180E090E0A5E7B4E48093000188
:1015100090930101A0930201B093030180912203F3
:101520008C3008F043C088E00E9489078091220334
:10153000E82FF0E09F01220F331FE20FF31FEC5161
:10154000FD4F9081907C98609083109223031092BD
:1015500024036CE00E94740C682F90E02CE0629FE2
:10156000B001112440E050E09A01260F371FF90125
:10157000EE0FFF1F2E0F3F1FF901EC51FD4F208191
:1015800026FD07C04F5F5F4F4C30510569F70E9441
:101590007601E0912203F0E0CF01880F991FE80F58
:1015A000F91FEC51FD4F8081806480838091250379
:1015B0008C3008F043C089E00E94890780912503A0
:1015C000E82FF0E09F01220F331FE20FF31FEC51D1
:1015D000FD4F9081907C9960908310922603109229
:1015E00027036CE00E94740C682F90E02CE0629F4F
:1015F000B001112440E050E09A01260F371FF90195
:10160000EE0FFF1F2E0F3F1FF901EC51FD4F208100
:1016100026FD07C04F5F5F4F4C30510569F70E94B0
:101620007601E0912503F0E0CF01880F991FE80FC4
:10163000F91FEC51FD4F80818064808360E570E08C
:1016400085E293E00E94F3002FB7F8948091C501E2
:101650009091C601A091C701B091C8012FBF80939E
:10166000BE019093BF01A093C001B093C1018AE570
:10167000A82EB12C0EE610E08BE991E00E94040741
:10168000BE016F5F7F4F89E093E00E9422032D89A6
:101690003E894F89588D698D7A8D8B8D9C8D0E94E6
:1016A000060D2EEA37E441E65EE30E94870C6B01EB
:1016B0007C0120E030E0A9010E94650D87FF0AC08F
:1016C0002BED3FE049EC50E4C701B6010E94870CC6
:1016D0006B017C012BED3FE049EC50E4C701B60102
:1016E0000E94EB0E181654F42BED3FE049EC50E449
:1016F000C701B6010E94860C6B017C0120E030E03E
:1017000044E353E4C701B6010E94F80E2BED3FE01D
:1017100049E450E40E946A0D0E94DC0D7093C301FD
:101720006093C20180EA91E00E94F2068091C201BA
:101730009091C3010E94DF078FB7F894C090C50154
:10174000D090C601E090C701F090C8018FBF809192
:10175000BE019091BF014601881A990A8AEA91E078
:101760000E94F206C4010E94DF07B092BD01A09260
:10177000BC011093BB010093BA0160E070E082E20B
:1017800093E00E94F3006EE670E085E293E00E9431
:10179000F300C092BE01D092BF01E092C001F0926E
:1017A000C1010E94A8070E94310566CF08951092DA
:1017B0003E0210923D0288EE93E0A0E0B0E08093FC
:1017C0003F0290934002A0934102B093420226E16F
:1017D00031E030933C0220933B0210924A02109277
:1017E000490280934B0290934C02A0934D02B09318
:1017F0004E0286E291E0909348028093470285EC86
:1018000090E0909354028093530284EC90E0909384
:1018100056028093550280EC90E09093580280939A
:10182000570281EC90E090935A028093590282EC27
:1018300090E090935C0280935B0286EC90E0909342
:101840005E0280935D02109260021092610210921B
:10185000620210926302809108038C30A0F491E040
:10186000980F909308038093250390E0FC01EE0FFE
:10187000FF1F8E0F9F1FFC01EC51FD4F88EB9BE07B
:101880009283818303C08FEF8093250380910803A7
:101890008C30A0F491E0980F90930803809322037A
:1018A00090E0FC01EE0FFF1F8E0F9F1FFC01EC511B
:1018B000FD4F88EB9BE09283818303C08FEF809381
:1018C000220386E391E090930A038093090389E35E
:1018D00090E3A0E0B0E080931E0390931F03A093D9
:1018E0002003B09321030895991B79E004C0991F48
:1018F000961708F0961B881F7A95C9F7809508956A
:10190000EE0FFF1F0590F491E02D09945058BB276E
:10191000AA270E949E0C0C94B10E0E94A30E38F0D0
:101920000E94AA0E20F039F49F3F19F426F40C947B
:10193000790E0EF4E095E7FB0C94730EE92F0E94EC
:10194000C20E58F3BA17620773078407950720F091
:1019500079F4A6F50C94E40E0EF4E0950B2EBA2F54
:10196000A02D0B01B90190010C01CA01A0011124A5
:10197000FF27591B99F0593F50F4503E68F11A1651
:10198000F040A22F232F342F4427585FF3CF4695E2
:1019900037952795A795F0405395C9F77EF41F1604
:1019A000BA0B620B730B840BBAF09150A1F0FF0FCE
:1019B000BB1F661F771F881FC2F70EC0BA0F621FBA
:1019C000731F841F48F4879577956795B795F795AA
:1019D0009E3F08F0B0CF9395880F08F09927EE0F3F
:1019E0009795879508950E94A30E60F080E891E096
:1019F00009F49EEF0E94AA0E28F040E851E071F42D
:101A00005EEF0CC00C94790E0C94E40EE92FE07894
:101A10000E94C20E40F3092E052AB1F3261737079C
:101A20004807590738F00E2E07F8E02569F0E02541
:101A3000E0640AC0EF6307F8009407FADB01B9011C
:101A40009D01DC01CA01AD01EF930E94810D0E944E
:101A5000B10E0E94360D5F91552339F02BED3FE01A
:101A600049E450FD49EC0C94870C0895DF93DD2781
:101A7000B92FBF7740E85FE31616170648075B07E4
:101A800018F4D92F0E94F00E9F938F937F936F933A
:101A90000E94650FE8E6F0E00E947C0E0E94B10E05
:101AA0002F913F914F915F910E940B0FDD2351F0D9
:101AB0009058A2EA2AED3FE049EC5FE3D0785D2739
:101AC0000E949E0CDF910C94B10E0E944F0E08F400
:101AD00081E008950E947E0D0C94B10E0E94AA0E22
:101AE00058F00E94A30E40F029F45F3F29F00C94B7
:101AF000730E51110C94E50E0C94790E0E94C20ED7
:101B000068F39923B1F3552391F3951B550BBB272C
:101B1000AA2762177307840738F09F5F5F4F220F71
:101B2000331F441FAA1FA9F335D00E2E3AF0E0E868
:101B300032D091505040E695001CCAF72BD0FE2FB2
:101B400029D0660F771F881FBB1F26173707480746
:101B5000AB07B0E809F0BB0B802DBF01FF279358FE
:101B60005F4F3AF09E3F510578F00C94730E0C9441
:101B7000E50E5F3FE4F3983ED4F38695779567953D
:101B8000B795F7959F5FC9F7880F911D9695879533
:101B900097F90895E1E0660F771F881FBB1F621752
:101BA00073078407BA0720F0621B730B840BBA0B10
:101BB000EE1F88F7E09508950E94E30D6894B11137
:101BC0000C94E50E08950E94CA0E88F09F5798F075
:101BD000B92F9927B751B0F0E1F0660F771F881F32
:101BE000991F1AF0BA95C9F714C0B13091F00E944C
:101BF000E40EB1E008950C94E40E672F782F882747
:101C0000B85F39F0B93FCCF3869577956795B39572
:101C1000D9F73EF490958095709561957F4F8F4FE1
:101C20009F4F0895E89409C097FB3EF490958095E6
:101C3000709561957F4F8F4F9F4F9923A9F0F92F92
:101C400096E9BB279395F695879577956795B79510
:101C5000F111F8CFFAF4BB0F11F460FF1BC06F5FF6
:101C60007F4F8F4F9F4F16C0882311F096E911C008
:101C7000772321F09EE8872F762F05C0662371F029
:101C800096E8862F70E060E02AF09A95660F771F3D
:101C9000881FDAF7880F9695879597F90895990F19
:101CA0000008550FAA0BE0E8FEEF16161706E80726
:101CB000F907C0F012161306E407F50798F0621B47
:101CC000730B840B950B39F40A2661F0232B242B1C
:101CD000252B21F408950A2609F4A140A6958FEF3B
:101CE000811D811D089597F99F6780E870E060E08D
:101CF00008959FEF80EC0895DF93CF931F930F9388
:101D0000FF92EF92DF927B018C01689406C0DA2E7D
:101D1000EF010E940B0FFE01E894A59125913591EA
:101D200045915591A6F3EF010E949E0CFE0197018B
:101D3000A801DA9469F7DF90EF90FF900F911F915F
:101D4000CF91DF91089500240A94161617061806FD
:101D50000906089500240A941216130614060506AF
:101D60000895092E0394000C11F4882352F0BB0F40
:101D700040F4BF2B11F460FF04C06F5F7F4F8F4FA3
:101D80009F4F089557FD9058440F551F59F05F3FDE
:101D900071F04795880F97FB991F61F09F3F79F08D
:101DA00087950895121613061406551FF2CF46950F
:101DB000F1DF08C0161617061806991FF1CF869591
:101DC0007105610508940895E894BB276627772775
:101DD000CB0197F908950E944F0E08F48FEF0895F4
:101DE0009B01AC0160E070E080E89FE30C946A0D19
:101DF0000E940B0F0C94B10E0E94A30E38F00E94AB
:101E0000AA0E20F0952311F00C94730E0C94790E09
:101E100011240C94E50E0E94C20E70F3959FC1F33D
:101E2000950F50E0551F629FF001729FBB27F00D88
:101E3000B11D639FAA27F00DB11DAA1F649F6627DD
:101E4000B00DA11D661F829F2227B00DA11D621F2C
:101E5000739FB00DA11D621F839FA00D611D221FE6
:101E6000749F3327A00D611D231F849F600D211DCA
:101E7000822F762F6A2F11249F5750409AF0F1F04D
:101E800088234AF0EE0FFF1FBB1F661F771F881FB6
:101E900091505040A9F79E3F510580F00C94730E6D
:101EA0000C94E50E5F3FE4F3983ED4F38695779566
:101EB0006795B795F795E7959F5FC1F7FE2B880F5C
:101EC000911D9695879597F908959B01AC010C9407
:101ED000F80ECF93DF938230910510F482E090E00A
:101EE000E0917103F091720320E030E0C0E0D0E0B7
:101EF000309711F14081518148175907C0F04817B8
:101F0000590761F482819381209719F09B838A831A
:101F10002BC0909372038093710326C02115310565
:101F200019F04217530718F49A01BE01DF01EF01BF
:101F30000280F381E02DDCCF2115310509F1281B4A
:101F4000390B2430310590F412968D919C911397A2
:101F50006115710521F0FB019383828304C0909386
:101F6000720380937103FD01329644C0FD01E20FBC
:101F7000F31F81939193225031092D933C933AC0E2
:101F800020916F0330917003232B41F420910A01BB
:101F900030910B013093700320936F03209108015F
:101FA000309109012115310541F42DB73EB740911B
:101FB0000C0150910D01241B350BE0916F03F09142
:101FC0007003E217F307A0F42E1B3F0B2817390705
:101FD00078F0AC014E5F5F4F2417350748F04E0F85
:101FE0005F1F5093700340936F038193919302C0DE
:101FF000E0E0F0E0CF01DF91CF9108950F931F93C0
:10200000CF93DF93009709F48CC0FC0132971382C1
:10201000128200917103109172030115110581F470
:1020200020813181820F931F20916F0330917003C3
:102030002817390779F5F0937003E0936F0371C0A7
:10204000D80140E050E0AE17BF0750F412962D9132
:102050003C911397AD012115310509F1D901F3CF59
:102060009D01DA013383228360817181860F971F7E
:102070008217930769F4EC0128813981260F371FF5
:102080002E5F3F4F318320838A819B81938382839C
:10209000452B29F4F0937203E093710342C0139629
:1020A000FC93EE931297ED01499159919E01240FF3
:1020B000351FE217F30771F480819181840F951F1A
:1020C000029611969C938E938281938113969C9392
:1020D0008E931297E0E0F0E0D80112968D919C91DA
:1020E0001397009719F0F8018C01F6CF8D919C9110
:1020F00098012E5F3F4F820F931F20916F03309105
:1021000070032817390769F4309729F41092720385
:102110001092710302C01382128210937003009315
:102120006F03DF91CF911F910F91089581E090E0AF
:10213000F8940C940D11FB01DC014150504048F023
:1021400001900D920020C9F701C01D9241505040EE
:10215000E0F70895052E97FB1EF400940E94C1102D
:1021600057FD07D00E94DC1007FC03D04EF40C94FE
:10217000C11050954095309521953F4F4F4F5F4F7F
:10218000089590958095709561957F4F8F4F9F4FE3
:1021900008950E94FE10A59F900DB49F900DA49FDE
:1021A000800D911D11240895B7FF0C94C9100E9451
:1021B000C910821B930B0895A1E21A2EAA1BBB1B08
:1021C000FD010DC0AA1FBB1FEE1FFF1FA217B30703
:1021D000E407F50720F0A21BB30BE40BF50B661F19
:1021E000771F881F991F1A9469F7609570958095DD
:1021F00090959B01AC01BD01CF010895A29FB00154
:10220000B39FC001A39F700D811D1124911DB29F2A
:10221000700D811D1124911D089510E0C4E7D0E0D8
:1022200004C0FE010E94800C2196C537D107C9F772
:04223000F894FFCF50
:10223400000075440080894400007303800001009D
:10224400000000000000A60276029F00DE06CF0612
:10225400CE06000000000C028801D501B301C701BD
:10226400530200000000C306390575022203D5029B
:102274000000000000000000750237053705484DD6
:10228400433538383300696E00633A20000D0A0084
:10229400454E4400630043757272656E7420436F4B
:1022A4006D6D616E643A00454E445F414741494E4D
:1022B40000484D4335383833204D61676E65746F7F
:1022C4006D657465722054657374006C6F6F700073
:1022D40048656164696E673A200074696D652073AE
:0822E400696E63653A200000F9
:00000001FF
