:100000000C9475000C949D000C949D000C949D0024
:100010000C949D000C949D000C949D000C949D00EC
:100020000C949D000C949D000C949D000C94E60390
:100030000C949D000C949D000C949D000C949D00CC
:100040000C94CC040C949D000C943C050C94160567
:100050000C949D000C949D000C949D000C949D00AC
:100060000C947C070C949D00084AD73B3BCE016E54
:1000700084BCBFFDC12F3D6C74319ABD56833DDAFF
:100080003D00C77F11BED9E4BB4C3E916BAAAABE0E
:10009000000000803F0000000000240027002A002C
:1000A00000000000250028002B00040404040404C0
:1000B0000404020202020202030303030303010217
:1000C00004081020408001020408102001020408E6
:1000D00010200000000800020100000304070000D7
:1000E0000000000000006A0B690B11241FBECFEF57
:1000F000D8E0DEBFCDBF23E0A8EBB1E001C01D9288
:10010000A337B207E1F711E0A0E0B1E0EAE5F1E2E0
:1001100002C005900D92A83BB107D9F710E0C4E7E3
:10012000D0E004C02197FE010E94130CC337D10711
:10013000C9F70E9479090C94A0100C940000CF928A
:10014000DF92EF92FF920F931F93CF93DF936C0197
:100150007A018B01C0E0D0E0CE15DF0589F0D8012F
:100160006D918D01D601ED91FC910190F081E02D12
:10017000C6010995892B11F47E0102C02196ECCFAE
:10018000C701DF91CF911F910F91FF90EF90DF900A
:10019000CF900895FC01918D828D981761F0828D2A
:1001A000DF01A80FB11D5D968C91928D9F5F9F73AB
:1001B000928F90E008958FEF9FEF0895FC01918D4D
:1001C000828D981731F0828DE80FF11D858D90E0BA
:1001D00008958FEF9FEF0895FC01918D228D892F57
:1001E00090E0805C9F4F821B91098F73992708953F
:1001F00087E292E00E94EC0021E0892B09F420E0E4
:10020000822F0895FC01848DDF01A80FB11DA35A30
:10021000BF4F2C91848D90E001968F739927848F26
:10022000A689B7892C93A089B1898C9180648C931D
:10023000938D848D981306C00288F389E02D808108
:100240008F7D80830895EF92FF920F931F93CF933A
:10025000DF93EC0181E0888F9B8D8C8D981305C016
:10026000E889F989808185FD24C0F62E0B8D10E088
:100270000F5F1F4F0F731127E02E8C8DE8120CC0FB
:100280000FB607FCFACFE889F989808185FFF5CFA1
:10029000CE010E940201F1CF8B8DFE01E80FF11D0E
:1002A000E35AFF4FF0820B8FEA89FB8980818062DD
:1002B00007C0EE89FF896083E889F98980818064BD
:1002C000808381E090E0DF91CF911F910F91FF90AB
:1002D000EF900895CF93DF93EC01888D8823C9F0C8
:1002E000EA89FB89808185FD05C0A889B9898C913F
:1002F00086FD0FC00FB607FCF5CF808185FFF2CFDA
:10030000A889B9898C9185FFEDCFCE010E940201A9
:10031000E7CFDF91CF91089508950F931F93CF9367
:10032000DF938C01EB0188E2FB0111928A95E9F7DA
:100330004BE050E06EE471E0CE010E942E101B866F
:1003400081E090E0A0E0B0E08C879D87AE87BF871A
:10035000F80185899689A789B08D888B998BAA8B9E
:10036000BB8B82E090E0A0E0B0E08C8B9D8BAE8BED
:10037000BF8B1CA21DA21EA21FA280E090E0A8E4D9
:10038000B4E4888F998FAA8FBB8F80E090E0A8E4B7
:10039000B4EC8C8F9D8FAE8FBF8F8DEC9CECACE45A
:1003A000BEE388A399A3AAA3BBA3DF91CF911F911A
:1003B0000F9108954F925F926F927F928F929F92CA
:1003C000AF92BF92CF92DF92EF92FF920F931F9363
:1003D000CF93DF938C01EB0184E2FB0111928A95AC
:1003E000E9F781E0809317028EE180931902109261
:1003F000180210921A0263E08BE192E00E94FD0560
:1004000081E00E944C06809116028111FCCF81E0B0
:1004100080931602809315029FEF9093140210921E
:10042000130295E0909312028093F1018091F10103
:100430008C638093F1018091F001813061F410921E
:10044000F0018091F1018093BB008091BC0083FD9D
:10045000F8CF85EC01C085EE8093BC008091160238
:100460008130E1F380911302863018F480911302F9
:1004700001C086E0A2EFB1E02EEC31E0F9019E2F41
:10048000921B981718F49D919193F9CF1092EF0158
:100490008093EE018630F0F38BE192E00E94B1058B
:1004A000882E8BE192E00E94B105982E8BE192E0BC
:1004B0000E94B105682E8BE192E00E94B105782E72
:1004C0008BE192E00E94B105482E8BE192E00E9400
:1004D000B105582EB82CA12CB5016929072E000CA6
:1004E000880B990B0E94A70D4B015C01F8016583F5
:1004F000768387839087D42CC12CB6016529072E7B
:10050000000C880B990B0E94A70DF8016187728778
:1005100083879487F62CE12CB7016729072E000CFE
:10052000880B990B0E94A70DF8016587768787874E
:10053000908B118A128A138A148A84E290E0A0E0D8
:10054000B0E088839983AA83BB8385899689A7892C
:10055000B08D8C839D83AE83BF8382E090E0A0E06A
:10056000B0E088879987AA87BB87188A198A1A8A70
:100570001B8AC0900401D0900501E0900601F09024
:100580000701A7019601C501B4010E94FD0C20E0FE
:1005900030E048EC52E40E948B0E6C8B7D8B8E8B8E
:1005A0009F8BA7019601F8016185728583859485EB
:1005B0000E94FD0C20E030E048EC52E40E948B0EDB
:1005C000688F798F8A8F9B8F209100013091010174
:1005D0004091020150910301F80165857685878578
:1005E00090890E94FD0C20E030E048EC52E40E942B
:1005F0008B0E6C8F7D8F8E8F9F8F81E0DF91CF91DF
:100600001F910F91FF90EF90DF90CF90BF90AF9030
:100610009F908F907F906F905F904F9008958F92F2
:100620009F92AF92BF92DF92EF92FF920F931F9330
:10063000CF93DF93CDB7DEB72A970FB6F894DEBF1E
:100640000FBECDBF87E292E00E94EC004C01CE01CC
:1006500001965C01E12CF12C8C01E814F90494F56D
:1006600099E0E916F10471F186E591E00E943E06F9
:1006700087E292E00E94CA00D82E89E591E00E94AC
:100680002C06E0912702F09128020190F081E02DE4
:100690006D2D87E292E009958DE591E00E942C0690
:1006A000EAE0DE1205C0F801EE0DFF1D10820AC05F
:1006B000FDE0DF16C1F3F501D1925F01FFEFEF1A04
:1006C000FF0ACBCFF801EE0DFF1D108280E691E00E
:1006D0000E943E0689818536D1F1883671F08336D5
:1006E00009F04DC084E691E00E942C068091C20181
:1006F0009091C3010E94FA0642C02B818A812A3060
:1007000041F4082E000C990B9093B9018093B80125
:1007100036C09C819A3049F4022E000C330B4AE01B
:100720008402200D311D11240DC0EAE02E0290013B
:100730001124F4E68F02200D311D1124290F311DE3
:1007400097FD3A953093B9012093B80118C060E045
:1007500070E085E093E00E94F6086AE570E082E0D0
:1007600093E00E94F60865E687E292E00E9423018A
:100770000E94C306F89483B7816083BF889586E69C
:1007800091E00E942C06C8010E943E0687E791E096
:100790000E943E062A960FB6F894DEBF0FBECDBF6C
:1007A000DF91CF911F910F91FF90EF90DF90BF905D
:1007B000AF909F908F9008950E94F80081110C9443
:1007C0000F0308950E9429100C94910F1F920F920D
:1007D0000FB60F9211242F933F934F935F936F9314
:1007E0007F938F939F93AF93BF93EF93FF938091EA
:1007F000CD0187FF05C010928500109284001BC0B8
:100800002091CD01022E000C330B8091E80290E084
:100810002817390784F48091CD01082E000C990B1C
:10082000FC01EE0FFF1F8E0F9F1FFC01EC53FD4FCD
:10083000808186FD15C08091CD018F5F8093CD01B1
:100840002091CD01022E000C330B8091E80290E044
:1008500028173907C4F48091CD018C3064F113C09E
:100860008091CD01082E000C990BFC01EE0FFF1FAB
:100870008E0F9F1FFC01EC53FD4F808160E08F7352
:100880000E94AA08D8CF8091840090918500049698
:1008900080349C4918F480E49CE905C08091840070
:1008A00090918500049690938900809388008FEF43
:1008B0008093CD013BC020918400309185008091D0
:1008C000CD01082E000C990BFC01EE0FFF1F8E0FBF
:1008D0009F1FFC01EC53FD4F81819281820F931F7A
:1008E00090938900809388008091CD01082E000CA0
:1008F000990BFC01EE0FFF1F8E0F9F1FFC01EC53A5
:10090000FD4F808186FF12C08091CD01082E000C22
:10091000990BFC01EE0FFF1F8E0F9F1FFC01EC5384
:10092000FD4F808161E08F730E94AA08FF91EF91D3
:10093000BF91AF919F918F917F916F915F914F91F7
:100940003F912F910F900FBE0F901F9018953FB7BA
:10095000F8948091C9019091CA01A091CB01B09106
:10096000CC0126B5A89B05C02F3F19F00196A11D0B
:10097000B11D3FBFBA2FA92F982F8827820F911D35
:10098000A11DB11DBC01CD0142E0660F771F881F7C
:10099000991F4A95D1F708951F920F920FB60F92A3
:1009A00011242F933F938F939F93AF93BF93809185
:1009B000C5019091C601A091C701B091C8013091C5
:1009C000C40123E0230F2D3720F40196A11DB11D92
:1009D00005C026E8230F0296A11DB11D2093C40176
:1009E0008093C5019093C601A093C701B093C8013D
:1009F0008091C9019091CA01A091CB01B091CC0125
:100A00000196A11DB11D8093C9019093CA01A093C5
:100A1000CB01B093CC01BF91AF919F918F913F914A
:100A20002F910F900FBE0F901F9018951F920F924D
:100A30000FB60F9211242F933F934F935F936F93B1
:100A40007F938F939F93AF93BF93EF93FF9387E22F
:100A500092E00E940201FF91EF91BF91AF919F91AF
:100A60008F917F916F915F914F913F912F910F9057
:100A70000FBE0F901F9018951F920F920FB60F92F6
:100A800011242F938F939F93EF93FF93E09137025D
:100A9000F09138028081E0913D02F0913E0282FDAA
:100AA00012C09081809140028F5F8F73209141022C
:100AB000821751F0E0914002F0E0E95DFD4F958F23
:100AC0008093400201C08081FF91EF919F918F91AF
:100AD0002F910F900FBE0F901F901895089585EDE0
:100AE0008093BC008091BC0084FDFCCF1092160264
:100AF000089540912A03262F30E0240F311D213222
:100B00003105DCF4209116022430C9F4FC0180E0A8
:100B100090E0861758F430912A032191DC01A85FF8
:100B2000BC4FA30FB11D2C930196F3CF80912A03E4
:100B3000680F60932A0380E0089581E0089582E0C1
:100B400008950895E091EF018091EE01E81730F4E7
:100B5000F0E0E253FE4F808190E008958FEF9FEF29
:100B600008959091EF018091EE01981750F4E92FCC
:100B7000F0E0E253FE4F208130E09F5F9093EF0161
:100B800002C02FEF3FEFC90108958091EE0190E080
:100B90002091EF01821B91090895CF92DF92EF928D
:100BA000FF920F931F93CF93DF937C01262F972FF4
:100BB0008A0180911702882391F0C62FD72F6E01EA
:100BC000C40ED51ECC15DD0571F06991D701ED91EC
:100BD000FC910190F081E02DC7010995F3CF642FBE
:100BE000822F0E947905C801DF91CF911F910F914B
:100BF000FF90EF90DF90CF900895CF93DF931F92F7
:100C0000CDB7DEB76983209117022223D1F020915E
:100C10001A02203240F021E030E0FC0133832283CD
:100C200080E090E015C080911802E82FF0E0E15BD1
:100C3000FC4F998190838F5F8093180280931A02F2
:100C400005C061E0CE0101960E94790581E090E047
:100C50000F90DF91CF910895009769F0FC0101900A
:100C60000020E9F73197AF01481B590BBC0187E21F
:100C700092E00C949F0080E090E00895CF93DF9382
:100C80000E942C06EC018DE591E00E942C068C0F51
:100C90009D1FDF91CF910895382F20911A029091D6
:100CA0001902213208F049C0809116028111FCCF4F
:100CB00042E040931602309315023FEF3093140246
:100CC0001092130220931202AFE4B3E042EF51E01E
:100CD000FA013E2F341B321718F43D913193F9CFAE
:100CE0001092F1012091F101990F922B9093F10153
:100CF0009091F001913061F41092F0019091F10126
:100D00009093BB009091BC0093FDF8CF95EC01C08F
:100D100095EE9093BC00909116029230E1F3909181
:100D200014029F3F79F080911402803241F080914B
:100D30001402803331F084E005C081E003C082E01A
:100D400001C083E01092180210921A02109217024A
:100D50000895CF93C62F91E0909317029EE1909350
:100D600019021092180210921A02682F8BE192E079
:100D70000E94FD056C2F8BE192E00E94FD0581E051
:100D8000CF910C944C068F929F92AF92BF92CF92CC
:100D9000DF92EF92FF920E94A7044B015C0184E670
:100DA000C82ED12CE12CF12C0E94A704DC01CB0130
:100DB00088199909AA09BB09883E9340A105B10584
:100DC00058F021E0C21AD108E108F10888EE880E37
:100DD00083E0981EA11CB11CC114D104E104F104EC
:100DE00019F7FF90EF90DF90CF90BF90AF909F905A
:100DF0008F9008958F929F92AF92BF92CF92DF9281
:100E0000EF92FF920F931F93CF93DF93CDB7DEB78F
:100E1000A1970FB6F894DEBF0FBECDBF6C01990F3E
:100E2000EE08FF08F7FE31C0E0912702F09128029A
:100E30000190F081E02D6DE287E292E009958C014E
:100E400022273327A9012C193D094E095F0919A250
:100E5000CE0181967C019AE0892E912CA12CB12C97
:100E6000CA01B901A50194010E946F10605DF701EC
:100E700062937F01211531054105510589F7CF01A5
:100E80000E942C06080F191F1EC0A701960119A267
:100E90008E010F5D1F4F8AE0C82ED12CE12CF12C62
:100EA000CA01B901A70196010E946F10605DF801A7
:100EB00062938F01211531054105510589F7CF0155
:100EC0000E942C068C018DE591E00E942C06800F7B
:100ED000911FA1960FB6F894DEBF0FBECDBFDF9174
:100EE000CF911F910F91FF90EF90DF90CF90BF9027
:100EF000AF909F908F9008951F920F920FB60F9210
:100F000011242F933F934F935F936F937F938F930E
:100F10009F93AF93BF93EF93FF938091B900887F26
:100F2000803609F49CC068F5883209F45BC090F4FF
:100F3000803109F454C038F4882309F4F6C08830AD
:100F400009F44DC0F6C0883109F44CC0803209F470
:100F50005DC0EFC0803409F468C048F4803309F400
:100F600055C0883309F0E5C080931402D8C080359D
:100F700009F44FC0883509F45DC0883409F0D9C040
:100F8000D6C0883909F4C7C0A8F4883709F467C007
:100F900038F4883609F463C0803709F460C0C9C0EA
:100FA000883809F4B8C0803909F45FC0803809F086
:100FB000C0C05BC0803B09F486C038F4803A09F4B5
:100FC00066C0883A09F47FC0B4C0803C09F4A7C069
:100FD000883C09F4A4C0883B09F48AC0AAC0809167
:100FE000F10110C09091130280911202981770F5D0
:100FF000E091130281E08E0F80931302F0E0EE5037
:10100000FE4F80818093BB0085EC86C080931402E4
:101010008EC0E091130281E08E0F809313028091C5
:10102000BB00F0E0EE50FE4F808390911302809160
:1010300012026EC0E091130281E08E0F80931302C2
:101040008091BB00F0E0EE50FE4F8083809115024E
:1010500081116DC081E08093F00184EA61C083E07A
:101060008093160210924E03CFCF80914E038032B0
:1010700008F051C0E0914E0381E08E0F80934E0343
:101080008091BB00F0E0E25DFC4F8083BDCF85EC3A
:101090008093BC001092160280914E03803230F48F
:1010A000E0914E03F0E0E25DFC4F108260914E0350
:1010B00070E0E0912C03F0912D038EE293E009950E
:1010C00010924E0336C084E08093160210922B03D8
:1010D00010922A03E0912803F09129030995809149
:1010E0002A03811105C081E080932A03109208032E
:1010F000E0912B0381E08E0F80932B03F0E0E85FFB
:10110000FC4F80818093BB0090912B0380912A0338
:10111000981708F479CF85E88093BC000AC085EC65
:101120008093BC001092160204C0109214020E9418
:101130006F05FF91EF91BF91AF919F918F917F913B
:101140006F915F914F913F912F910F900FBE0F9034
:101150001F90189590E0FC01EE52FF4F3491FC0176
:10116000E254FF4F2491FC01E655FF4FE491EE233A
:1011700009F43BC0332339F1333091F038F4313086
:10118000A9F0323001F584B58F7D12C0373091F06F
:101190003830A1F03430B9F4809180008F7D03C0E5
:1011A000809180008F77809380000DC084B58F7709
:1011B00084BD09C08091B0008F7703C08091B000DA
:1011C0008F7D8093B000F0E0EE0FFF1FE056FF4FE1
:1011D000A591B4918FB7F894EC91611103C020955B
:1011E0002E2301C02E2B2C938FBF0895CF92DF9218
:1011F000EF92FF92CF93DF93EC01603282E07807A9
:101200000CF03DC077FD06C0653B71052CF064EB2A
:1012100070E002C060E070E0898128E830E0690198
:10122000C81AD10887FDD394CC0CDD1CCC0CDD1C76
:101230000D2C000CEE08FF088A8128E532E0281BFF
:10124000310987FD3395220F331F220F331FC90148
:10125000330FAA0BBB0B9C01AD012C193D094E09A4
:101260005F09DB010E94671024EB30E040E050E0B2
:101270000E943D10C20ED31EE41EF51EB6018881E9
:101280008C3080F5998148E850E0491B510997FD61
:101290005395440F551F440F551F6417750784F06D
:1012A0009A8128E532E0291B310997FD3395220FF9
:1012B000331F220F331FAB01261737070CF4A90188
:1012C00042505109440F551F2FB7F89490E0FC018C
:1012D000EE0FFF1F8E0F9F1FFC01EC53FD4F52833B
:1012E00041832FBFDF91CF91FF90EF90DF90CF90A0
:1012F0000895CF93DF93CDB7DEB7A4970FB6F894D8
:10130000DEBF0FBECDBF789484B5826084BD84B546
:10131000816084BD85B5826085BD85B5816085BDF0
:1013200080916E00816080936E00109281008091A8
:101330008100826080938100809181008160809330
:101340008100809180008160809380008091B10055
:1013500084608093B1008091B00081608093B00080
:1013600080917A00846080937A0080917A00826014
:1013700080937A0080917A00816080937A008091D6
:101380007A00806880937A001092C100E091370261
:10139000F091380282E08083E0913302F0913402D0
:1013A0001082E0913502F09136028FEC808310922A
:1013B0003F02E0913B02F0913C0286E08083E091A5
:1013C0003902F0913A02808180618083E091390294
:1013D000F0913A02808188608083E0913902F09137
:1013E0003A02808180688083E0913902F0913A026C
:1013F00080818F7D808381E891E00E943E068FE5A9
:1014000091E00E943E061092EF011092EE011092C0
:10141000180210921A021092160281E080931502AF
:101420001092F00161E082E10E94AA0861E083E18C
:101430000E94AA088091B9008E7F8093B9008091A4
:10144000B9008D7F8093B90088E48093B80085E46B
:101450008093BC0060E082E00E94A90660E281E027
:101460000E94A90680E290E09093ED028093EC0246
:1014700080E090E8A9E8B4E480930401909305012A
:10148000A0930601B093070180E090E0A5E7B4E4E3
:101490008093000190930101A0930201B093030196
:1014A000809102038C3008F068C0EFECF0E02491EA
:1014B000EBEBF0E08491882399F090E0880F991F7E
:1014C000FC01EA56FF4FA591B491FC01E056FF4F95
:1014D000859194918FB7F894EC91E22BEC938FBFA8
:1014E00080910203E82FF0E09F01220F331FE20FEB
:1014F000F31FEC53FD4F9081907C9161908310928B
:101500000303109204036CE00E94070C9CE0899F87
:10151000B001112440E050E09A01260F371FF90175
:10152000EE0FFF1F2E0F3F1FF901EC53FD4F90816F
:1015300096FD16C04F5F5F4F4C30510569F7811122
:101540000FC01092800082E080938100109285008D
:1015500010928400B19A80916F00826080936F0036
:10156000E0910203F0E0CF01880F991FE80FF91F07
:10157000EC53FD4F8081806480832FB7F894809175
:10158000C5019091C601A091C701B091C8012FBFBC
:101590008093BE019093BF01A093C001B093C1019D
:1015A0008AE5A82EB12C0EE610E08BE991E00E94AE
:1015B0003E06BE016F5F7F4F89EE92E00E94DA0126
:1015C0002D893E894F89588D698D7A8D8B8D9C8DA3
:1015D0000E94990C2EEA37E441E65EE30E941A0C61
:1015E0006B017C0120E030E0A9010E94F80C87FF2C
:1015F0000AC02BED3FE049EC50E4C701B6010E9460
:101600001A0C6B017C012BED3FE049EC50E4C70163
:10161000B6010E947E0E181654F42BED3FE049EC03
:1016200050E4C701B6010E94190C6B017C0120E057
:1016300030E044E353E4C701B6010E948B0E2BED6A
:101640003FE049E450E40E94FD0C0E946F0D70934E
:10165000C3016093C20180EA91E00E942C06809150
:10166000C2019091C3010E94FA068FB7F894C0900E
:10167000C501D090C601E090C701F090C8018FBFAE
:101680008091BE019091BF014601881A990A8AEAA9
:1016900091E00E942C06C4010E94FA06B092BD019E
:1016A000A092BC011093BB010093BA0164EB70E0FF
:1016B00082E093E00E94F608C092BE01D092BF0182
:1016C000E092C001F092C1010E94C3060E94DC03B7
:1016D0006CCF089510921E0210921D0288EE93E0C6
:1016E000A0E0B0E080931F0290932002A09321021B
:1016F000B093220226E131E030931C0220931B02BA
:1017000010922A021092290280932B0290932C02AD
:10171000A0932D02B0932E0286E291E090932802CE
:101720008093270285EC90E09093340280933302FB
:1017300084EC90E0909336028093350280EC90E048
:10174000909338028093370281EC90E090933A02B4
:101750008093390282EC90E090933C0280933B02AC
:1017600086EC90E090933E0280933D0210924002FE
:101770001092410210924202109243028091E802BC
:101780008C30A0F491E0980F9093E80280930503C9
:1017900090E0FC01EE0FFF1F8E0F9F1FFC01EC532A
:1017A000FD4F88EB9BE09283818303C08FEF809392
:1017B00005038091E8028C30A0F491E0980F90939B
:1017C000E8028093020390E0FC01EE0FFF1F8E0FF2
:1017D0009F1FFC01EC53FD4F88EB9BE092838183BC
:1017E00003C08FEF8093020386E391E09093EA02B7
:1017F0008093E90289E390E3A0E0B0E08093FE02E9
:101800009093FF02A0930003B09301030895991BE6
:1018100079E004C0991F961708F0961B881F7A95E7
:10182000C9F780950895EE0FFF1F0590F491E02D04
:1018300009945058BB27AA270E94310C0C94440EDF
:101840000E94360E38F00E943D0E20F039F49F3F82
:1018500019F426F40C940C0E0EF4E095E7FB0C94AE
:10186000060EE92F0E94550E58F3BA176207730748
:101870008407950720F079F4A6F50C94770E0EF402
:10188000E0950B2EBA2FA02D0B01B90190010C0190
:10189000CA01A0011124FF27591B99F0593F50F4A8
:1018A000503E68F11A16F040A22F232F342F442700
:1018B000585FF3CF469537952795A795F0405395F8
:1018C000C9F77EF41F16BA0B620B730B840BBAF0C8
:1018D0009150A1F0FF0FBB1F661F771F881FC2F733
:1018E0000EC0BA0F621F731F841F48F48795779547
:1018F0006795B795F7959E3F08F0B0CF9395880F01
:1019000008F09927EE0F9795879508950E94360E57
:1019100060F080E891E009F49EEF0E943D0E28F00F
:1019200040E851E071F45EEF0CC00C940C0E0C9486
:10193000770EE92FE0780E94550E40F3092E052A14
:10194000B1F3261737074807590738F00E2E07F866
:10195000E02569F0E025E0640AC0EF6307F8009431
:1019600007FADB01B9019D01DC01CA01AD01EF936A
:101970000E94140D0E94440E0E94C90C5F915523D1
:1019800039F02BED3FE049E450FD49EC0C941A0C82
:101990000895DF93DD27B92FBF7740E85FE3161680
:1019A000170648075B0718F4D92F0E94830E9F93F0
:1019B0008F937F936F930E94F80EE8E6F0E00E9409
:1019C0000F0E0E94440E2F913F914F915F910E9404
:1019D0009E0EDD2351F09058A2EA2AED3FE049EC3B
:1019E0005FE3D0785D270E94310CDF910C94440EA8
:1019F0000E94E20D08F481E008950E94110D0C94FC
:101A0000440E0E943D0E58F00E94360E40F029F41C
:101A10005F3F29F00C94060E51110C94780E0C9433
:101A20000C0E0E94550E68F39923B1F3552391F3E0
:101A3000951B550BBB27AA2762177307840738F03D
:101A40009F5F5F4F220F331F441FAA1FA9F335D09A
:101A50000E2E3AF0E0E832D091505040E695001C4E
:101A6000CAF72BD0FE2F29D0660F771F881FBB1F08
:101A7000261737074807AB07B0E809F0BB0B802DE6
:101A8000BF01FF2793585F4F3AF09E3F510578F012
:101A90000C94060E0C94780E5F3FE4F3983ED4F35A
:101AA000869577956795B795F7959F5FC9F7880FE6
:101AB000911D9695879597F90895E1E0660F771F38
:101AC000881FBB1F621773078407BA0720F0621BC9
:101AD000730B840BBA0BEE1F88F7E09508950E94F4
:101AE000760D6894B1110C94780E08950E945D0EE5
:101AF00088F09F5798F0B92F9927B751B0F0E1F0CF
:101B0000660F771F881F991F1AF0BA95C9F714C07E
:101B1000B13091F00E94770EB1E008950C94770EE9
:101B2000672F782F8827B85F39F0B93FCCF38695B7
:101B300077956795B395D9F73EF490958095709514
:101B400061957F4F8F4F9F4F0895E89409C097FB91
:101B50003EF490958095709561957F4F8F4F9F4F84
:101B60009923A9F0F92F96E9BB279395F6958795C8
:101B700077956795B795F111F8CFFAF4BB0F11F48B
:101B800060FF1BC06F5F7F4F8F4F9F4F16C0882332
:101B900011F096E911C0772321F09EE8872F762F68
:101BA00005C0662371F096E8862F70E060E02AF0A9
:101BB0009A95660F771F881FDAF7880F9695879595
:101BC00097F90895990F0008550FAA0BE0E8FEEF6A
:101BD00016161706E807F907C0F012161306E407F1
:101BE000F50798F0621B730B840B950B39F40A26EA
:101BF00061F0232B242B252B21F408950A2609F4C8
:101C0000A140A6958FEF811D811D089597F99F67CB
:101C100080E870E060E008959FEF80EC0895DF9326
:101C2000CF931F930F93FF92EF92DF927B018C0172
:101C3000689406C0DA2EEF010E949E0EFE01E89421
:101C4000A5912591359145915591A6F3EF010E94FB
:101C5000310CFE019701A801DA9469F7DF90EF904B
:101C6000FF900F911F91CF91DF91089500240A9466
:101C70001616170618060906089500240A94121667
:101C80001306140605060895092E0394000C11F49A
:101C9000882352F0BB0F40F4BF2B11F460FF04C047
:101CA0006F5F7F4F8F4F9F4F089557FD9058440FA0
:101CB000551F59F05F3F71F04795880F97FB991FAB
:101CC00061F09F3F79F08795089512161306140668
:101CD000551FF2CF4695F1DF08C0161617061806F5
:101CE000991FF1CF86957105610508940895E894D0
:101CF000BB2766277727CB0197F908950E94E20D4D
:101D000008F48FEF08959B01AC0160E070E080E87B
:101D10009FE30C94FD0C0E949E0E0C94440E0E94B6
:101D2000360E38F00E943D0E20F0952311F00C94F1
:101D3000060E0C940C0E11240C94780E0E94550E75
:101D400070F3959FC1F3950F50E0551F629FF0010E
:101D5000729FBB27F00DB11D639FAA27F00DB11D27
:101D6000AA1F649F6627B00DA11D661F829F2227B0
:101D7000B00DA11D621F739FB00DA11D621F839F37
:101D8000A00D611D221F749F3327A00D611D231F0D
:101D9000849F600D211D822F762F6A2F11249F575B
:101DA00050409AF0F1F088234AF0EE0FFF1FBB1F5E
:101DB000661F771F881F91505040A9F79E3F51051D
:101DC00080F00C94060E0C94780E5F3FE4F3983E7E
:101DD000D4F3869577956795B795F795E7959F5FC7
:101DE000C1F7FE2B880F911D9695879597F9089559
:101DF0009B01AC010C948B0ECF93DF938230910545
:101E000010F482E090E0E0917103F091720320E021
:101E100030E0C0E0D0E0309711F1408151814817A7
:101E20005907C0F04817590761F4828193812097C0
:101E300019F09B838A832BC0909372038093710364
:101E400026C02115310519F04217530718F49A01DD
:101E5000BE01DF01EF010280F381E02DDCCF21150F
:101E6000310509F1281B390B2430310590F4129605
:101E70008D919C9113976115710521F0FB0193835E
:101E8000828304C09093720380937103FD013296A4
:101E900044C0FD01E20FF31F819391932250310959
:101EA0002D933C933AC020916F0330917003232B04
:101EB00041F420910A0130910B013093700320937B
:101EC0006F0320910801309109012115310541F47A
:101ED0002DB73EB740910C0150910D01241B350BDD
:101EE000E0916F03F0917003E217F307A0F42E1B4B
:101EF0003F0B2817390778F0AC014E5F5F4F24176E
:101F0000350748F04E0F5F1F5093700340936F03E7
:101F10008193919302C0E0E0F0E0CF01DF91CF9197
:101F200008950F931F93CF93DF93009709F48CC00C
:101F3000FC01329713821282009171031091720397
:101F40000115110581F420813181820F931F2091A9
:101F50006F03309170032817390779F5F0937003F8
:101F6000E0936F0371C0D80140E050E0AE17BF07A7
:101F700050F412962D913C911397AD012115310526
:101F800009F1D901F3CF9D01DA0133832283608106
:101F90007181860F971F8217930769F4EC012881DE
:101FA0003981260F371F2E5F3F4F318320838A816F
:101FB0009B8193838283452B29F4F0937203E093F2
:101FC000710342C01396FC93EE931297ED01499171
:101FD00059919E01240F351FE217F30771F4808198
:101FE0009181840F951F029611969C938E93828106
:101FF000938113969C938E931297E0E0F0E0D801C2
:1020000012968D919C911397009719F0F8018C010D
:10201000F6CF8D919C9198012E5F3F4F820F931FB9
:1020200020916F03309170032817390769F43097B6
:1020300029F4109272031092710302C0138212826B
:102040001093700300936F03DF91CF911F910F9155
:10205000089581E090E0F8940C94A010FB01DC015D
:102060004150504048F001900D920020C9F701C046
:102070001D9241505040E0F70895052E97FB1EF445
:1020800000940E94541057FD07D00E946F1007FC67
:1020900003D04EF40C9454105095409530952195F2
:1020A0003F4F4F4F5F4F0895909580957095619584
:1020B0007F4F8F4F9F4F08950E949110A59F900DC5
:1020C000B49F900DA49F800D911D11240895B7FF1A
:1020D0000C945C100E945C10821B930B0895A1E28B
:1020E0001A2EAA1BBB1BFD010DC0AA1FBB1FEE1F92
:1020F000FF1FA217B307E407F50720F0A21BB30BDD
:10210000E40BF50B661F771F881F991F1A9469F758
:1021100060957095809590959B01AC01BD01CF01B4
:102120000895A29FB001B39FC001A39F700D811DB0
:102130001124911DB29F700D811D1124911D0895D0
:1021400010E0C4E7D0E004C0FE010E94130C219609
:0A215000C537D107C9F7F894FFCF97
:10215A000000754400808944000073038000010078
:10216A00000000000000FD05CD05C505B105A2056A
:10217A00A1050000000023019F00EC00CA00DE0058
:10218A006A01000000006E05E4038C01DA018D018A
:10219A0000000000000000008C01E203E203484D49
:1021AA00433538383300696E00633A20000D0A005F
:1021BA00454E4400630043757272656E7420436F26
:1021CA006D6D616E643A00454E445F414741494E28
:1021DA0000484D4335383833204D61676E65746F5A
:1021EA006D657465722054657374006C6F6F70004E
:1021FA0048656164696E673A200074696D6520708C
:08220A0061737365643A200062
:00000001FF
